{
  "_format": "hh-sol-artifact-1",
  "contractName": "Leon",
  "sourceName": "contracts/LeonNFT.sol",
  "abi": [
    {
      "inputs": [],
      "stateMutability": "nonpayable",
      "type": "constructor"
    },
    {
      "anonymous": false,
      "inputs": [
        {
          "indexed": true,
          "internalType": "address",
          "name": "account",
          "type": "address"
        },
        {
          "indexed": true,
          "internalType": "address",
          "name": "operator",
          "type": "address"
        },
        {
          "indexed": false,
          "internalType": "bool",
          "name": "approved",
          "type": "bool"
        }
      ],
      "name": "ApprovalForAll",
      "type": "event"
    },
    {
      "anonymous": false,
      "inputs": [
        {
          "indexed": true,
          "internalType": "address",
          "name": "operator",
          "type": "address"
        },
        {
          "indexed": true,
          "internalType": "address",
          "name": "from",
          "type": "address"
        },
        {
          "indexed": true,
          "internalType": "address",
          "name": "to",
          "type": "address"
        },
        {
          "indexed": false,
          "internalType": "uint256[]",
          "name": "ids",
          "type": "uint256[]"
        },
        {
          "indexed": false,
          "internalType": "uint256[]",
          "name": "values",
          "type": "uint256[]"
        }
      ],
      "name": "TransferBatch",
      "type": "event"
    },
    {
      "anonymous": false,
      "inputs": [
        {
          "indexed": true,
          "internalType": "address",
          "name": "operator",
          "type": "address"
        },
        {
          "indexed": true,
          "internalType": "address",
          "name": "from",
          "type": "address"
        },
        {
          "indexed": true,
          "internalType": "address",
          "name": "to",
          "type": "address"
        },
        {
          "indexed": false,
          "internalType": "uint256",
          "name": "id",
          "type": "uint256"
        },
        {
          "indexed": false,
          "internalType": "uint256",
          "name": "value",
          "type": "uint256"
        }
      ],
      "name": "TransferSingle",
      "type": "event"
    },
    {
      "anonymous": false,
      "inputs": [
        {
          "indexed": false,
          "internalType": "string",
          "name": "value",
          "type": "string"
        },
        {
          "indexed": true,
          "internalType": "uint256",
          "name": "id",
          "type": "uint256"
        }
      ],
      "name": "URI",
      "type": "event"
    },
    {
      "inputs": [],
      "name": "BEAR",
      "outputs": [
        {
          "internalType": "uint256",
          "name": "",
          "type": "uint256"
        }
      ],
      "stateMutability": "view",
      "type": "function"
    },
    {
      "inputs": [],
      "name": "DTS",
      "outputs": [
        {
          "internalType": "uint256",
          "name": "",
          "type": "uint256"
        }
      ],
      "stateMutability": "view",
      "type": "function"
    },
    {
      "inputs": [],
      "name": "PTSD",
      "outputs": [
        {
          "internalType": "uint256",
          "name": "",
          "type": "uint256"
        }
      ],
      "stateMutability": "view",
      "type": "function"
    },
    {
      "inputs": [
        {
          "internalType": "address",
          "name": "account",
          "type": "address"
        },
        {
          "internalType": "uint256",
          "name": "id",
          "type": "uint256"
        }
      ],
      "name": "balanceOf",
      "outputs": [
        {
          "internalType": "uint256",
          "name": "",
          "type": "uint256"
        }
      ],
      "stateMutability": "view",
      "type": "function"
    },
    {
      "inputs": [
        {
          "internalType": "address[]",
          "name": "accounts",
          "type": "address[]"
        },
        {
          "internalType": "uint256[]",
          "name": "ids",
          "type": "uint256[]"
        }
      ],
      "name": "balanceOfBatch",
      "outputs": [
        {
          "internalType": "uint256[]",
          "name": "",
          "type": "uint256[]"
        }
      ],
      "stateMutability": "view",
      "type": "function"
    },
    {
      "inputs": [
        {
          "internalType": "address",
          "name": "account",
          "type": "address"
        },
        {
          "internalType": "address",
          "name": "operator",
          "type": "address"
        }
      ],
      "name": "isApprovedForAll",
      "outputs": [
        {
          "internalType": "bool",
          "name": "",
          "type": "bool"
        }
      ],
      "stateMutability": "view",
      "type": "function"
    },
    {
      "inputs": [
        {
          "internalType": "address",
          "name": "from",
          "type": "address"
        },
        {
          "internalType": "address",
          "name": "to",
          "type": "address"
        },
        {
          "internalType": "uint256[]",
          "name": "ids",
          "type": "uint256[]"
        },
        {
          "internalType": "uint256[]",
          "name": "amounts",
          "type": "uint256[]"
        },
        {
          "internalType": "bytes",
          "name": "data",
          "type": "bytes"
        }
      ],
      "name": "safeBatchTransferFrom",
      "outputs": [],
      "stateMutability": "nonpayable",
      "type": "function"
    },
    {
      "inputs": [
        {
          "internalType": "address",
          "name": "from",
          "type": "address"
        },
        {
          "internalType": "address",
          "name": "to",
          "type": "address"
        },
        {
          "internalType": "uint256",
          "name": "id",
          "type": "uint256"
        },
        {
          "internalType": "uint256",
          "name": "amount",
          "type": "uint256"
        },
        {
          "internalType": "bytes",
          "name": "data",
          "type": "bytes"
        }
      ],
      "name": "safeTransferFrom",
      "outputs": [],
      "stateMutability": "nonpayable",
      "type": "function"
    },
    {
      "inputs": [
        {
          "internalType": "address",
          "name": "operator",
          "type": "address"
        },
        {
          "internalType": "bool",
          "name": "approved",
          "type": "bool"
        }
      ],
      "name": "setApprovalForAll",
      "outputs": [],
      "stateMutability": "nonpayable",
      "type": "function"
    },
    {
      "inputs": [
        {
          "internalType": "bytes4",
          "name": "interfaceId",
          "type": "bytes4"
        }
      ],
      "name": "supportsInterface",
      "outputs": [
        {
          "internalType": "bool",
          "name": "",
          "type": "bool"
        }
      ],
      "stateMutability": "view",
      "type": "function"
    },
    {
      "inputs": [
        {
          "internalType": "uint256",
          "name": "",
          "type": "uint256"
        }
      ],
      "name": "uri",
      "outputs": [
        {
          "internalType": "string",
          "name": "",
          "type": "string"
        }
      ],
      "stateMutability": "view",
      "type": "function"
    }
  ],
  "bytecode": "0x60806040523480156200001157600080fd5b506040518060800160405280605a8152602001620033d0605a91396200003d81620000b260201b60201c565b5062000063336000600160405180602001604052806000815250620000ce60201b60201c565b620000873360018060405180602001604052806000815250620000ce60201b60201c565b620000ac336002600160405180602001604052806000815250620000ce60201b60201c565b62000ce4565b8060029080519060200190620000ca92919062000599565b5050565b600073ffffffffffffffffffffffffffffffffffffffff168473ffffffffffffffffffffffffffffffffffffffff16141562000141576040517f08c379a0000000000000000000000000000000000000000000000000000000008152600401620001389062000871565b60405180910390fd5b6000620001536200029360201b60201c565b90506200018c816000876200016e886200029b60201b60201c565b6200017f886200029b60201b60201c565b876200036460201b60201c565b8260008086815260200190815260200160002060008773ffffffffffffffffffffffffffffffffffffffff1673ffffffffffffffffffffffffffffffffffffffff1681526020019081526020016000206000828254620001ed919062000902565b925050819055508473ffffffffffffffffffffffffffffffffffffffff16600073ffffffffffffffffffffffffffffffffffffffff168273ffffffffffffffffffffffffffffffffffffffff167fc3d58168c5ae7397731d063d5bbf3d657854427343f4c083240f7aacaa2d0f6287876040516200026d92919062000893565b60405180910390a46200028c816000878787876200036c60201b60201c565b5050505050565b600033905090565b60606000600167ffffffffffffffff811115620002e1577f4e487b7100000000000000000000000000000000000000000000000000000000600052604160045260246000fd5b604051908082528060200260200182016040528015620003105781602001602082028036833780820191505090505b50905082816000815181106200034f577f4e487b7100000000000000000000000000000000000000000000000000000000600052603260045260246000fd5b60200260200101818152505080915050919050565b505050505050565b620003988473ffffffffffffffffffffffffffffffffffffffff166200057660201b620008361760201c565b156200056e578373ffffffffffffffffffffffffffffffffffffffff1663f23a6e6187878686866040518663ffffffff1660e01b8152600401620003e1959493929190620007a5565b602060405180830381600087803b158015620003fc57600080fd5b505af19250505080156200043057506040513d601f19601f820116820180604052508101906200042d919062000660565b60015b620004e2576200043f62000af8565b806308c379a01415620004a357506200045762000c28565b80620004645750620004a5565b806040517f08c379a00000000000000000000000000000000000000000000000000000000081526004016200049a919062000809565b60405180910390fd5b505b6040517f08c379a0000000000000000000000000000000000000000000000000000000008152600401620004d9906200082d565b60405180910390fd5b63f23a6e6160e01b7bffffffffffffffffffffffffffffffffffffffffffffffffffffffff1916817bffffffffffffffffffffffffffffffffffffffffffffffffffffffff1916146200056c576040517f08c379a000000000000000000000000000000000000000000000000000000000815260040162000563906200084f565b60405180910390fd5b505b505050505050565b6000808273ffffffffffffffffffffffffffffffffffffffff163b119050919050565b828054620005a790620009ff565b90600052602060002090601f016020900481019282620005cb576000855562000617565b82601f10620005e657805160ff191683800117855562000617565b8280016001018555821562000617579182015b8281111562000616578251825591602001919060010190620005f9565b5b5090506200062691906200062a565b5090565b5b80821115620006455760008160009055506001016200062b565b5090565b6000815190506200065a8162000cca565b92915050565b6000602082840312156200067357600080fd5b6000620006838482850162000649565b91505092915050565b62000697816200095f565b82525050565b6000620006aa82620008ca565b620006b68185620008e0565b9350620006c8818560208601620009c9565b620006d38162000b1d565b840191505092915050565b6000620006eb82620008d5565b620006f78185620008f1565b935062000709818560208601620009c9565b620007148162000b1d565b840191505092915050565b60006200072e603483620008f1565b91506200073b8262000b3b565b604082019050919050565b600062000755602883620008f1565b9150620007628262000b8a565b604082019050919050565b60006200077c602183620008f1565b9150620007898262000bd9565b604082019050919050565b6200079f81620009bf565b82525050565b600060a082019050620007bc60008301886200068c565b620007cb60208301876200068c565b620007da604083018662000794565b620007e9606083018562000794565b8181036080830152620007fd81846200069d565b90509695505050505050565b60006020820190508181036000830152620008258184620006de565b905092915050565b6000602082019050818103600083015262000848816200071f565b9050919050565b600060208201905081810360008301526200086a8162000746565b9050919050565b600060208201905081810360008301526200088c816200076d565b9050919050565b6000604082019050620008aa600083018562000794565b620008b9602083018462000794565b9392505050565b6000604051905090565b600081519050919050565b600081519050919050565b600082825260208201905092915050565b600082825260208201905092915050565b60006200090f82620009bf565b91506200091c83620009bf565b9250827fffffffffffffffffffffffffffffffffffffffffffffffffffffffffffffffff0382111562000954576200095362000a6b565b5b828201905092915050565b60006200096c826200099f565b9050919050565b60007fffffffff0000000000000000000000000000000000000000000000000000000082169050919050565b600073ffffffffffffffffffffffffffffffffffffffff82169050919050565b6000819050919050565b60005b83811015620009e9578082015181840152602081019050620009cc565b83811115620009f9576000848401525b50505050565b6000600282049050600182168062000a1857607f821691505b6020821081141562000a2f5762000a2e62000a9a565b5b50919050565b62000a408262000b1d565b810181811067ffffffffffffffff8211171562000a625762000a6162000ac9565b5b80604052505050565b7f4e487b7100000000000000000000000000000000000000000000000000000000600052601160045260246000fd5b7f4e487b7100000000000000000000000000000000000000000000000000000000600052602260045260246000fd5b7f4e487b7100000000000000000000000000000000000000000000000000000000600052604160045260246000fd5b600060033d111562000b1a5760046000803e62000b1760005162000b2e565b90505b90565b6000601f19601f8301169050919050565b60008160e01c9050919050565b7f455243313135353a207472616e7366657220746f206e6f6e204552433131353560008201527f526563656976657220696d706c656d656e746572000000000000000000000000602082015250565b7f455243313135353a204552433131353552656365697665722072656a6563746560008201527f6420746f6b656e73000000000000000000000000000000000000000000000000602082015250565b7f455243313135353a206d696e7420746f20746865207a65726f2061646472657360008201527f7300000000000000000000000000000000000000000000000000000000000000602082015250565b600060443d101562000c3a5762000cc7565b62000c44620008c0565b60043d036004823e80513d602482011167ffffffffffffffff8211171562000c6e57505062000cc7565b808201805167ffffffffffffffff81111562000c8e575050505062000cc7565b80602083010160043d03850181111562000cad57505050505062000cc7565b62000cbe8260200185018662000a35565b82955050505050505b90565b62000cd58162000973565b811462000ce157600080fd5b50565b6126dc8062000cf46000396000f3fe608060405234801561001057600080fd5b50600436106100a85760003560e01c80634e1273f4116100715780634e1273f4146101775780635ebac7a5146101a7578063a22cb465146101c5578063e985e9c5146101e1578063f242432a14610211578063f34d90fc1461022d576100a8565b8062fdd58e146100ad57806301ffc9a7146100dd5780630e89341c1461010d57806312fc5e191461013d5780632eb2c2d61461015b575b600080fd5b6100c760048036038101906100c29190611879565b61024b565b6040516100d49190611eb6565b60405180910390f35b6100f760048036038101906100f29190611921565b610314565b6040516101049190611d39565b60405180910390f35b61012760048036038101906101229190611973565b6103f6565b6040516101349190611d54565b60405180910390f35b61014561048a565b6040516101529190611eb6565b60405180910390f35b610175600480360381019061017091906116ef565b61048f565b005b610191600480360381019061018c91906118b5565b610530565b60405161019e9190611ce0565b60405180910390f35b6101af6106e1565b6040516101bc9190611eb6565b60405180910390f35b6101df60048036038101906101da919061183d565b6106e6565b005b6101fb60048036038101906101f691906116b3565b6106fc565b6040516102089190611d39565b60405180910390f35b61022b600480360381019061022691906117ae565b610790565b005b610235610831565b6040516102429190611eb6565b60405180910390f35b60008073ffffffffffffffffffffffffffffffffffffffff168373ffffffffffffffffffffffffffffffffffffffff1614156102bc576040517f08c379a00000000000000000000000000000000000000000000000000000000081526004016102b390611db6565b60405180910390fd5b60008083815260200190815260200160002060008473ffffffffffffffffffffffffffffffffffffffff1673ffffffffffffffffffffffffffffffffffffffff16815260200190815260200160002054905092915050565b60007fd9b67a26000000000000000000000000000000000000000000000000000000007bffffffffffffffffffffffffffffffffffffffffffffffffffffffff1916827bffffffffffffffffffffffffffffffffffffffffffffffffffffffff191614806103df57507f0e89341c000000000000000000000000000000000000000000000000000000007bffffffffffffffffffffffffffffffffffffffffffffffffffffffff1916827bffffffffffffffffffffffffffffffffffffffffffffffffffffffff1916145b806103ef57506103ee82610859565b5b9050919050565b60606002805461040590612125565b80601f016020809104026020016040519081016040528092919081815260200182805461043190612125565b801561047e5780601f106104535761010080835404028352916020019161047e565b820191906000526020600020905b81548152906001019060200180831161046157829003601f168201915b50505050509050919050565b600181565b6104976108c3565b73ffffffffffffffffffffffffffffffffffffffff168573ffffffffffffffffffffffffffffffffffffffff1614806104dd57506104dc856104d76108c3565b6106fc565b5b61051c576040517f08c379a000000000000000000000000000000000000000000000000000000000815260040161051390611e16565b60405180910390fd5b61052985858585856108cb565b5050505050565b60608151835114610576576040517f08c379a000000000000000000000000000000000000000000000000000000000815260040161056d90611e76565b60405180910390fd5b6000835167ffffffffffffffff8111156105b9577f4e487b7100000000000000000000000000000000000000000000000000000000600052604160045260246000fd5b6040519080825280602002602001820160405280156105e75781602001602082028036833780820191505090505b50905060005b84518110156106d657610680858281518110610632577f4e487b7100000000000000000000000000000000000000000000000000000000600052603260045260246000fd5b6020026020010151858381518110610673577f4e487b7100000000000000000000000000000000000000000000000000000000600052603260045260246000fd5b602002602001015161024b565b8282815181106106b9577f4e487b7100000000000000000000000000000000000000000000000000000000600052603260045260246000fd5b602002602001018181525050806106cf90612188565b90506105ed565b508091505092915050565b600281565b6106f86106f16108c3565b8383610c2b565b5050565b6000600160008473ffffffffffffffffffffffffffffffffffffffff1673ffffffffffffffffffffffffffffffffffffffff16815260200190815260200160002060008373ffffffffffffffffffffffffffffffffffffffff1673ffffffffffffffffffffffffffffffffffffffff16815260200190815260200160002060009054906101000a900460ff16905092915050565b6107986108c3565b73ffffffffffffffffffffffffffffffffffffffff168573ffffffffffffffffffffffffffffffffffffffff1614806107de57506107dd856107d86108c3565b6106fc565b5b61081d576040517f08c379a000000000000000000000000000000000000000000000000000000000815260040161081490611dd6565b60405180910390fd5b61082a8585858585610d98565b5050505050565b600081565b6000808273ffffffffffffffffffffffffffffffffffffffff163b119050919050565b60007f01ffc9a7000000000000000000000000000000000000000000000000000000007bffffffffffffffffffffffffffffffffffffffffffffffffffffffff1916827bffffffffffffffffffffffffffffffffffffffffffffffffffffffff1916149050919050565b600033905090565b815183511461090f576040517f08c379a000000000000000000000000000000000000000000000000000000000815260040161090690611e96565b60405180910390fd5b600073ffffffffffffffffffffffffffffffffffffffff168473ffffffffffffffffffffffffffffffffffffffff16141561097f576040517f08c379a000000000000000000000000000000000000000000000000000000000815260040161097690611df6565b60405180910390fd5b60006109896108c3565b905061099981878787878761101a565b60005b8451811015610b965760008582815181106109e0577f4e487b7100000000000000000000000000000000000000000000000000000000600052603260045260246000fd5b602002602001015190506000858381518110610a25577f4e487b7100000000000000000000000000000000000000000000000000000000600052603260045260246000fd5b60200260200101519050600080600084815260200190815260200160002060008b73ffffffffffffffffffffffffffffffffffffffff1673ffffffffffffffffffffffffffffffffffffffff16815260200190815260200160002054905081811015610ac6576040517f08c379a0000000000000000000000000000000000000000000000000000000008152600401610abd90611e36565b60405180910390fd5b81810360008085815260200190815260200160002060008c73ffffffffffffffffffffffffffffffffffffffff1673ffffffffffffffffffffffffffffffffffffffff168152602001908152602001600020819055508160008085815260200190815260200160002060008b73ffffffffffffffffffffffffffffffffffffffff1673ffffffffffffffffffffffffffffffffffffffff1681526020019081526020016000206000828254610b7b9190612019565b9250508190555050505080610b8f90612188565b905061099c565b508473ffffffffffffffffffffffffffffffffffffffff168673ffffffffffffffffffffffffffffffffffffffff168273ffffffffffffffffffffffffffffffffffffffff167f4a39dc06d4c0dbc64b70af90fd698a233a518aa5d07e595d983b8c0526c8f7fb8787604051610c0d929190611d02565b60405180910390a4610c23818787878787611022565b505050505050565b8173ffffffffffffffffffffffffffffffffffffffff168373ffffffffffffffffffffffffffffffffffffffff161415610c9a576040517f08c379a0000000000000000000000000000000000000000000000000000000008152600401610c9190611e56565b60405180910390fd5b80600160008573ffffffffffffffffffffffffffffffffffffffff1673ffffffffffffffffffffffffffffffffffffffff16815260200190815260200160002060008473ffffffffffffffffffffffffffffffffffffffff1673ffffffffffffffffffffffffffffffffffffffff16815260200190815260200160002060006101000a81548160ff0219169083151502179055508173ffffffffffffffffffffffffffffffffffffffff168373ffffffffffffffffffffffffffffffffffffffff167f17307eab39ab6107e8899845ad3d59bd9653f200f220920489ca2b5937696c3183604051610d8b9190611d39565b60405180910390a3505050565b600073ffffffffffffffffffffffffffffffffffffffff168473ffffffffffffffffffffffffffffffffffffffff161415610e08576040517f08c379a0000000000000000000000000000000000000000000000000000000008152600401610dff90611df6565b60405180910390fd5b6000610e126108c3565b9050610e32818787610e2388611209565b610e2c88611209565b8761101a565b600080600086815260200190815260200160002060008873ffffffffffffffffffffffffffffffffffffffff1673ffffffffffffffffffffffffffffffffffffffff16815260200190815260200160002054905083811015610ec9576040517f08c379a0000000000000000000000000000000000000000000000000000000008152600401610ec090611e36565b60405180910390fd5b83810360008087815260200190815260200160002060008973ffffffffffffffffffffffffffffffffffffffff1673ffffffffffffffffffffffffffffffffffffffff168152602001908152602001600020819055508360008087815260200190815260200160002060008873ffffffffffffffffffffffffffffffffffffffff1673ffffffffffffffffffffffffffffffffffffffff1681526020019081526020016000206000828254610f7e9190612019565b925050819055508573ffffffffffffffffffffffffffffffffffffffff168773ffffffffffffffffffffffffffffffffffffffff168373ffffffffffffffffffffffffffffffffffffffff167fc3d58168c5ae7397731d063d5bbf3d657854427343f4c083240f7aacaa2d0f628888604051610ffb929190611ed1565b60405180910390a46110118288888888886112cf565b50505050505050565b505050505050565b6110418473ffffffffffffffffffffffffffffffffffffffff16610836565b15611201578373ffffffffffffffffffffffffffffffffffffffff1663bc197c8187878686866040518663ffffffff1660e01b8152600401611087959493929190611c1e565b602060405180830381600087803b1580156110a157600080fd5b505af19250505080156110d257506040513d601f19601f820116820180604052508101906110cf919061194a565b60015b611178576110de61225e565b806308c379a0141561113b57506110f36125b4565b806110fe575061113d565b806040517f08c379a00000000000000000000000000000000000000000000000000000000081526004016111329190611d54565b60405180910390fd5b505b6040517f08c379a000000000000000000000000000000000000000000000000000000000815260040161116f90611d76565b60405180910390fd5b63bc197c8160e01b7bffffffffffffffffffffffffffffffffffffffffffffffffffffffff1916817bffffffffffffffffffffffffffffffffffffffffffffffffffffffff1916146111ff576040517f08c379a00000000000000000000000000000000000000000000000000000000081526004016111f690611d96565b60405180910390fd5b505b505050505050565b60606000600167ffffffffffffffff81111561124e577f4e487b7100000000000000000000000000000000000000000000000000000000600052604160045260246000fd5b60405190808252806020026020018201604052801561127c5781602001602082028036833780820191505090505b50905082816000815181106112ba577f4e487b7100000000000000000000000000000000000000000000000000000000600052603260045260246000fd5b60200260200101818152505080915050919050565b6112ee8473ffffffffffffffffffffffffffffffffffffffff16610836565b156114ae578373ffffffffffffffffffffffffffffffffffffffff1663f23a6e6187878686866040518663ffffffff1660e01b8152600401611334959493929190611c86565b602060405180830381600087803b15801561134e57600080fd5b505af192505050801561137f57506040513d601f19601f8201168201806040525081019061137c919061194a565b60015b6114255761138b61225e565b806308c379a014156113e857506113a06125b4565b806113ab57506113ea565b806040517f08c379a00000000000000000000000000000000000000000000000000000000081526004016113df9190611d54565b60405180910390fd5b505b6040517f08c379a000000000000000000000000000000000000000000000000000000000815260040161141c90611d76565b60405180910390fd5b63f23a6e6160e01b7bffffffffffffffffffffffffffffffffffffffffffffffffffffffff1916817bffffffffffffffffffffffffffffffffffffffffffffffffffffffff1916146114ac576040517f08c379a00000000000000000000000000000000000000000000000000000000081526004016114a390611d96565b60405180910390fd5b505b505050505050565b60006114c96114c484611f1f565b611efa565b905080838252602082019050828560208602820111156114e857600080fd5b60005b8581101561151857816114fe88826115cc565b8452602084019350602083019250506001810190506114eb565b5050509392505050565b600061153561153084611f4b565b611efa565b9050808382526020820190508285602086028201111561155457600080fd5b60005b85811015611584578161156a888261169e565b845260208401935060208301925050600181019050611557565b5050509392505050565b60006115a161159c84611f77565b611efa565b9050828152602081018484840111156115b957600080fd5b6115c48482856120e3565b509392505050565b6000813590506115db8161264a565b92915050565b600082601f8301126115f257600080fd5b81356116028482602086016114b6565b91505092915050565b600082601f83011261161c57600080fd5b813561162c848260208601611522565b91505092915050565b60008135905061164481612661565b92915050565b60008135905061165981612678565b92915050565b60008151905061166e81612678565b92915050565b600082601f83011261168557600080fd5b813561169584826020860161158e565b91505092915050565b6000813590506116ad8161268f565b92915050565b600080604083850312156116c657600080fd5b60006116d4858286016115cc565b92505060206116e5858286016115cc565b9150509250929050565b600080600080600060a0868803121561170757600080fd5b6000611715888289016115cc565b9550506020611726888289016115cc565b945050604086013567ffffffffffffffff81111561174357600080fd5b61174f8882890161160b565b935050606086013567ffffffffffffffff81111561176c57600080fd5b6117788882890161160b565b925050608086013567ffffffffffffffff81111561179557600080fd5b6117a188828901611674565b9150509295509295909350565b600080600080600060a086880312156117c657600080fd5b60006117d4888289016115cc565b95505060206117e5888289016115cc565b94505060406117f68882890161169e565b93505060606118078882890161169e565b925050608086013567ffffffffffffffff81111561182457600080fd5b61183088828901611674565b9150509295509295909350565b6000806040838503121561185057600080fd5b600061185e858286016115cc565b925050602061186f85828601611635565b9150509250929050565b6000806040838503121561188c57600080fd5b600061189a858286016115cc565b92505060206118ab8582860161169e565b9150509250929050565b600080604083850312156118c857600080fd5b600083013567ffffffffffffffff8111156118e257600080fd5b6118ee858286016115e1565b925050602083013567ffffffffffffffff81111561190b57600080fd5b6119178582860161160b565b9150509250929050565b60006020828403121561193357600080fd5b60006119418482850161164a565b91505092915050565b60006020828403121561195c57600080fd5b600061196a8482850161165f565b91505092915050565b60006020828403121561198557600080fd5b60006119938482850161169e565b91505092915050565b60006119a88383611c00565b60208301905092915050565b6119bd8161206f565b82525050565b60006119ce82611fb8565b6119d88185611fe6565b93506119e383611fa8565b8060005b83811015611a145781516119fb888261199c565b9750611a0683611fd9565b9250506001810190506119e7565b5085935050505092915050565b611a2a81612081565b82525050565b6000611a3b82611fc3565b611a458185611ff7565b9350611a558185602086016120f2565b611a5e81612280565b840191505092915050565b6000611a7482611fce565b611a7e8185612008565b9350611a8e8185602086016120f2565b611a9781612280565b840191505092915050565b6000611aaf603483612008565b9150611aba8261229e565b604082019050919050565b6000611ad2602883612008565b9150611add826122ed565b604082019050919050565b6000611af5602b83612008565b9150611b008261233c565b604082019050919050565b6000611b18602983612008565b9150611b238261238b565b604082019050919050565b6000611b3b602583612008565b9150611b46826123da565b604082019050919050565b6000611b5e603283612008565b9150611b6982612429565b604082019050919050565b6000611b81602a83612008565b9150611b8c82612478565b604082019050919050565b6000611ba4602983612008565b9150611baf826124c7565b604082019050919050565b6000611bc7602983612008565b9150611bd282612516565b604082019050919050565b6000611bea602883612008565b9150611bf582612565565b604082019050919050565b611c09816120d9565b82525050565b611c18816120d9565b82525050565b600060a082019050611c3360008301886119b4565b611c4060208301876119b4565b8181036040830152611c5281866119c3565b90508181036060830152611c6681856119c3565b90508181036080830152611c7a8184611a30565b90509695505050505050565b600060a082019050611c9b60008301886119b4565b611ca860208301876119b4565b611cb56040830186611c0f565b611cc26060830185611c0f565b8181036080830152611cd48184611a30565b90509695505050505050565b60006020820190508181036000830152611cfa81846119c3565b905092915050565b60006040820190508181036000830152611d1c81856119c3565b90508181036020830152611d3081846119c3565b90509392505050565b6000602082019050611d4e6000830184611a21565b92915050565b60006020820190508181036000830152611d6e8184611a69565b905092915050565b60006020820190508181036000830152611d8f81611aa2565b9050919050565b60006020820190508181036000830152611daf81611ac5565b9050919050565b60006020820190508181036000830152611dcf81611ae8565b9050919050565b60006020820190508181036000830152611def81611b0b565b9050919050565b60006020820190508181036000830152611e0f81611b2e565b9050919050565b60006020820190508181036000830152611e2f81611b51565b9050919050565b60006020820190508181036000830152611e4f81611b74565b9050919050565b60006020820190508181036000830152611e6f81611b97565b9050919050565b60006020820190508181036000830152611e8f81611bba565b9050919050565b60006020820190508181036000830152611eaf81611bdd565b9050919050565b6000602082019050611ecb6000830184611c0f565b92915050565b6000604082019050611ee66000830185611c0f565b611ef36020830184611c0f565b9392505050565b6000611f04611f15565b9050611f108282612157565b919050565b6000604051905090565b600067ffffffffffffffff821115611f3a57611f3961222f565b5b602082029050602081019050919050565b600067ffffffffffffffff821115611f6657611f6561222f565b5b602082029050602081019050919050565b600067ffffffffffffffff821115611f9257611f9161222f565b5b611f9b82612280565b9050602081019050919050565b6000819050602082019050919050565b600081519050919050565b600081519050919050565b600081519050919050565b6000602082019050919050565b600082825260208201905092915050565b600082825260208201905092915050565b600082825260208201905092915050565b6000612024826120d9565b915061202f836120d9565b9250827fffffffffffffffffffffffffffffffffffffffffffffffffffffffffffffffff03821115612064576120636121d1565b5b828201905092915050565b600061207a826120b9565b9050919050565b60008115159050919050565b60007fffffffff0000000000000000000000000000000000000000000000000000000082169050919050565b600073ffffffffffffffffffffffffffffffffffffffff82169050919050565b6000819050919050565b82818337600083830152505050565b60005b838110156121105780820151818401526020810190506120f5565b8381111561211f576000848401525b50505050565b6000600282049050600182168061213d57607f821691505b6020821081141561215157612150612200565b5b50919050565b61216082612280565b810181811067ffffffffffffffff8211171561217f5761217e61222f565b5b80604052505050565b6000612193826120d9565b91507fffffffffffffffffffffffffffffffffffffffffffffffffffffffffffffffff8214156121c6576121c56121d1565b5b600182019050919050565b7f4e487b7100000000000000000000000000000000000000000000000000000000600052601160045260246000fd5b7f4e487b7100000000000000000000000000000000000000000000000000000000600052602260045260246000fd5b7f4e487b7100000000000000000000000000000000000000000000000000000000600052604160045260246000fd5b600060033d111561227d5760046000803e61227a600051612291565b90505b90565b6000601f19601f8301169050919050565b60008160e01c9050919050565b7f455243313135353a207472616e7366657220746f206e6f6e204552433131353560008201527f526563656976657220696d706c656d656e746572000000000000000000000000602082015250565b7f455243313135353a204552433131353552656365697665722072656a6563746560008201527f6420746f6b656e73000000000000000000000000000000000000000000000000602082015250565b7f455243313135353a2062616c616e636520717565727920666f7220746865207a60008201527f65726f2061646472657373000000000000000000000000000000000000000000602082015250565b7f455243313135353a2063616c6c6572206973206e6f74206f776e6572206e6f7260008201527f20617070726f7665640000000000000000000000000000000000000000000000602082015250565b7f455243313135353a207472616e7366657220746f20746865207a65726f20616460008201527f6472657373000000000000000000000000000000000000000000000000000000602082015250565b7f455243313135353a207472616e736665722063616c6c6572206973206e6f742060008201527f6f776e6572206e6f7220617070726f7665640000000000000000000000000000602082015250565b7f455243313135353a20696e73756666696369656e742062616c616e636520666f60008201527f72207472616e7366657200000000000000000000000000000000000000000000602082015250565b7f455243313135353a2073657474696e6720617070726f76616c2073746174757360008201527f20666f722073656c660000000000000000000000000000000000000000000000602082015250565b7f455243313135353a206163636f756e747320616e6420696473206c656e67746860008201527f206d69736d617463680000000000000000000000000000000000000000000000602082015250565b7f455243313135353a2069647320616e6420616d6f756e7473206c656e6774682060008201527f6d69736d61746368000000000000000000000000000000000000000000000000602082015250565b600060443d10156125c457612647565b6125cc611f15565b60043d036004823e80513d602482011167ffffffffffffffff821117156125f4575050612647565b808201805167ffffffffffffffff8111156126125750505050612647565b80602083010160043d03850181111561262f575050505050612647565b61263e82602001850186612157565b82955050505050505b90565b6126538161206f565b811461265e57600080fd5b50565b61266a81612081565b811461267557600080fd5b50565b6126818161208d565b811461268c57600080fd5b50565b612698816120d9565b81146126a357600080fd5b5056fea264697066735822122043a977712afe7fdb06dd09ac4e82b8988a3fd048a8e0e9eae88117ec5ef1fe2164736f6c6343000804003368747470733a2f2f697066732e696f2f697066732f626166796265696573337670376f613575327966337a747a36636e69746b716f7975737a63716e7379626763646678376a68696e327278336b68752f7b69647d2e6a736f6e",
  "linkReferences": {},
  "deployedLinkReferences": {}
}