{
  "_format": "hh-sol-artifact-1",
  "contractName": "LeoToken",
  "sourceName": "contracts/LeoToken.sol",
  "abi": [
    {
      "inputs": [],
      "stateMutability": "nonpayable",
      "type": "constructor"
    },
    {
      "anonymous": false,
      "inputs": [
        {
          "indexed": true,
          "internalType": "address",
          "name": "_owner",
          "type": "address"
        },
        {
          "indexed": true,
          "internalType": "address",
          "name": "_spender",
          "type": "address"
        },
        {
          "indexed": false,
          "internalType": "uint256",
          "name": "_value",
          "type": "uint256"
        }
      ],
      "name": "Approval",
      "type": "event"
    },
    {
      "anonymous": false,
      "inputs": [
        {
          "indexed": true,
          "internalType": "address",
          "name": "_from",
          "type": "address"
        },
        {
          "indexed": true,
          "internalType": "address",
          "name": "_to",
          "type": "address"
        },
        {
          "indexed": false,
          "internalType": "uint256",
          "name": "_value",
          "type": "uint256"
        }
      ],
      "name": "Transfer",
      "type": "event"
    },
    {
      "inputs": [
        {
          "internalType": "address",
          "name": "_owner",
          "type": "address"
        },
        {
          "internalType": "address",
          "name": "_spender",
          "type": "address"
        }
      ],
      "name": "allowance",
      "outputs": [
        {
          "internalType": "uint256",
          "name": "remaining",
          "type": "uint256"
        }
      ],
      "stateMutability": "view",
      "type": "function"
    },
    {
      "inputs": [
        {
          "internalType": "address",
          "name": "_spender",
          "type": "address"
        },
        {
          "internalType": "uint256",
          "name": "_value",
          "type": "uint256"
        }
      ],
      "name": "approve",
      "outputs": [
        {
          "internalType": "bool",
          "name": "success",
          "type": "bool"
        }
      ],
      "stateMutability": "nonpayable",
      "type": "function"
    },
    {
      "inputs": [
        {
          "internalType": "address",
          "name": "_owner",
          "type": "address"
        }
      ],
      "name": "balanceOf",
      "outputs": [
        {
          "internalType": "uint256",
          "name": "balance",
          "type": "uint256"
        }
      ],
      "stateMutability": "view",
      "type": "function"
    },
    {
      "inputs": [],
      "name": "buy",
      "outputs": [],
      "stateMutability": "payable",
      "type": "function"
    },
    {
      "inputs": [
        {
          "internalType": "address",
          "name": "_spender",
          "type": "address"
        },
        {
          "internalType": "uint256",
          "name": "_value",
          "type": "uint256"
        }
      ],
      "name": "canSpendTokens",
      "outputs": [
        {
          "internalType": "bool",
          "name": "canSpend",
          "type": "bool"
        }
      ],
      "stateMutability": "view",
      "type": "function"
    },
    {
      "inputs": [],
      "name": "decimals",
      "outputs": [
        {
          "internalType": "uint8",
          "name": "",
          "type": "uint8"
        }
      ],
      "stateMutability": "pure",
      "type": "function"
    },
    {
      "inputs": [],
      "name": "isOwner",
      "outputs": [
        {
          "internalType": "bool",
          "name": "isOwnerTrue",
          "type": "bool"
        }
      ],
      "stateMutability": "view",
      "type": "function"
    },
    {
      "inputs": [],
      "name": "name",
      "outputs": [
        {
          "internalType": "string",
          "name": "",
          "type": "string"
        }
      ],
      "stateMutability": "pure",
      "type": "function"
    },
    {
      "inputs": [],
      "name": "owner",
      "outputs": [
        {
          "internalType": "address",
          "name": "",
          "type": "address"
        }
      ],
      "stateMutability": "view",
      "type": "function"
    },
    {
      "inputs": [],
      "name": "paymeup",
      "outputs": [],
      "stateMutability": "payable",
      "type": "function"
    },
    {
      "inputs": [],
      "name": "symbol",
      "outputs": [
        {
          "internalType": "string",
          "name": "",
          "type": "string"
        }
      ],
      "stateMutability": "pure",
      "type": "function"
    },
    {
      "inputs": [],
      "name": "totalSupply",
      "outputs": [
        {
          "internalType": "uint256",
          "name": "",
          "type": "uint256"
        }
      ],
      "stateMutability": "pure",
      "type": "function"
    },
    {
      "inputs": [
        {
          "internalType": "address",
          "name": "_to",
          "type": "address"
        },
        {
          "internalType": "uint256",
          "name": "_value",
          "type": "uint256"
        }
      ],
      "name": "transfer",
      "outputs": [
        {
          "internalType": "bool",
          "name": "success",
          "type": "bool"
        }
      ],
      "stateMutability": "nonpayable",
      "type": "function"
    },
    {
      "inputs": [
        {
          "internalType": "address",
          "name": "_from",
          "type": "address"
        },
        {
          "internalType": "address",
          "name": "_to",
          "type": "address"
        },
        {
          "internalType": "uint256",
          "name": "_value",
          "type": "uint256"
        }
      ],
      "name": "transferFrom",
      "outputs": [
        {
          "internalType": "bool",
          "name": "success",
          "type": "bool"
        }
      ],
      "stateMutability": "nonpayable",
      "type": "function"
    },
    {
      "inputs": [
        {
          "internalType": "uint256",
          "name": "_value",
          "type": "uint256"
        }
      ],
      "name": "withdrawLeo",
      "outputs": [
        {
          "internalType": "bool",
          "name": "success",
          "type": "bool"
        }
      ],
      "stateMutability": "nonpayable",
      "type": "function"
    }
  ],
  "bytecode": "0x60806040523480156200001157600080fd5b50620000226200013b60201b60201c565b600160003073ffffffffffffffffffffffffffffffffffffffff1673ffffffffffffffffffffffffffffffffffffffff16815260200190815260200160002081905550336000806101000a81548173ffffffffffffffffffffffffffffffffffffffff021916908373ffffffffffffffffffffffffffffffffffffffff160217905550620000b56200013b60201b60201c565b600260003073ffffffffffffffffffffffffffffffffffffffff1673ffffffffffffffffffffffffffffffffffffffff16815260200190815260200160002060003373ffffffffffffffffffffffffffffffffffffffff1673ffffffffffffffffffffffffffffffffffffffff16815260200190815260200160002081905550620003c5565b60006200014d6200017060201b60201c565b600a6200015b9190620001d4565b620186a06200016b919062000311565b905090565b60006012905090565b6000808291508390505b6001851115620001cb57808604811115620001a357620001a262000389565b5b6001851615620001b35780820291505b8081029050620001c385620003b8565b945062000183565b94509492505050565b6000620001e18262000372565b9150620001ee836200037c565b92506200021d7fffffffffffffffffffffffffffffffffffffffffffffffffffffffffffffffff848462000225565b905092915050565b6000826200023757600190506200030a565b816200024757600090506200030a565b81600181146200026057600281146200026b57620002a1565b60019150506200030a565b60ff84111562000280576200027f62000389565b5b8360020a9150848211156200029a576200029962000389565b5b506200030a565b5060208310610133831016604e8410600b8410161715620002db5782820a905083811115620002d557620002d462000389565b5b6200030a565b620002ea848484600162000179565b9250905081840481111562000304576200030362000389565b5b81810290505b9392505050565b60006200031e8262000372565b91506200032b8362000372565b9250817fffffffffffffffffffffffffffffffffffffffffffffffffffffffffffffffff048311821515161562000367576200036662000389565b5b828202905092915050565b6000819050919050565b600060ff82169050919050565b7f4e487b7100000000000000000000000000000000000000000000000000000000600052601160045260246000fd5b60008160011c9050919050565b611e1680620003d56000396000f3fe6080604052600436106100e85760003560e01c806370a082311161008a5780639af0da39116100595780639af0da39146102ed578063a6f2ae3a1461032a578063a9059cbb14610334578063dd62ed3e14610371576100e8565b806370a082311461022f5780638da5cb5b1461026c5780638f32d59b1461029757806395d89b41146102c2576100e8565b806323b872dd116100c657806323b872dd14610180578063291b2f7b146101bd578063313ce567146101c757806339e81957146101f2576100e8565b806306fdde03146100ed578063095ea7b31461011857806318160ddd14610155575b600080fd5b3480156100f957600080fd5b506101026103ae565b60405161010f91906116a8565b60405180910390f35b34801561012457600080fd5b5061013f600480360381019061013a91906113f4565b6103eb565b60405161014c919061168d565b60405180910390f35b34801561016157600080fd5b5061016a61054c565b604051610177919061184a565b60405180910390f35b34801561018c57600080fd5b506101a760048036038101906101a291906113a5565b610575565b6040516101b4919061168d565b60405180910390f35b6101c561087c565b005b3480156101d357600080fd5b506101dc610955565b6040516101e99190611865565b60405180910390f35b3480156101fe57600080fd5b5061021960048036038101906102149190611430565b61095e565b604051610226919061168d565b60405180910390f35b34801561023b57600080fd5b5061025660048036038101906102519190611340565b610b43565b604051610263919061184a565b60405180910390f35b34801561027857600080fd5b50610281610b8c565b60405161028e9190611672565b60405180910390f35b3480156102a357600080fd5b506102ac610bb0565b6040516102b9919061168d565b60405180910390f35b3480156102ce57600080fd5b506102d7610c18565b6040516102e491906116a8565b60405180910390f35b3480156102f957600080fd5b50610314600480360381019061030f91906113f4565b610c55565b604051610321919061168d565b60405180910390f35b610332610df7565b005b34801561034057600080fd5b5061035b600480360381019061035691906113f4565b6110f8565b604051610368919061168d565b60405180910390f35b34801561037d57600080fd5b5061039860048036038101906103939190611369565b61128f565b6040516103a5919061184a565b60405180910390f35b60606040518060400160405280600d81526020017f4c656f636f646520546f6b656e00000000000000000000000000000000000000815250905090565b60008073ffffffffffffffffffffffffffffffffffffffff168373ffffffffffffffffffffffffffffffffffffffff16141561045c576040517f08c379a00000000000000000000000000000000000000000000000000000000081526004016104539061176a565b60405180910390fd5b81600260003373ffffffffffffffffffffffffffffffffffffffff1673ffffffffffffffffffffffffffffffffffffffff16815260200190815260200160002060008573ffffffffffffffffffffffffffffffffffffffff1673ffffffffffffffffffffffffffffffffffffffff168152602001908152602001600020819055508273ffffffffffffffffffffffffffffffffffffffff163373ffffffffffffffffffffffffffffffffffffffff167f8c5be1e5ebec7d5bd14f71427d1e84f3dd0314c0f7b2291e5b200ac8c7c3b9258460405161053a919061184a565b60405180910390a36001905092915050565b6000610556610955565b600a6105629190611945565b620186a06105709190611a63565b905090565b60008073ffffffffffffffffffffffffffffffffffffffff168373ffffffffffffffffffffffffffffffffffffffff1614156105e6576040517f08c379a00000000000000000000000000000000000000000000000000000000081526004016105dd906117ca565b60405180910390fd5b600073ffffffffffffffffffffffffffffffffffffffff168473ffffffffffffffffffffffffffffffffffffffff161415610656576040517f08c379a000000000000000000000000000000000000000000000000000000000815260040161064d9061182a565b60405180910390fd5b81600160008673ffffffffffffffffffffffffffffffffffffffff1673ffffffffffffffffffffffffffffffffffffffff1681526020019081526020016000205410158015610721575081600260008673ffffffffffffffffffffffffffffffffffffffff1673ffffffffffffffffffffffffffffffffffffffff16815260200190815260200160002060003373ffffffffffffffffffffffffffffffffffffffff1673ffffffffffffffffffffffffffffffffffffffff1681526020019081526020016000205410155b610760576040517f08c379a00000000000000000000000000000000000000000000000000000000081526004016107579061174a565b60405180910390fd5b81600160008573ffffffffffffffffffffffffffffffffffffffff1673ffffffffffffffffffffffffffffffffffffffff16815260200190815260200160002060008282546107af919061189c565b9250508190555081600160008673ffffffffffffffffffffffffffffffffffffffff1673ffffffffffffffffffffffffffffffffffffffff16815260200190815260200160002060008282546108059190611abd565b925050819055508273ffffffffffffffffffffffffffffffffffffffff163373ffffffffffffffffffffffffffffffffffffffff167fddf252ad1be2c89b69c2b068fc378daa952ba7f163c4a11628f55a4df523b3ef84604051610869919061184a565b60405180910390a3600190509392505050565b610884610bb0565b6108c3576040517f08c379a00000000000000000000000000000000000000000000000000000000081526004016108ba906116ea565b60405180910390fd5b60004790506000811161090b576040517f08c379a00000000000000000000000000000000000000000000000000000000081526004016109029061178a565b60405180910390fd5b3373ffffffffffffffffffffffffffffffffffffffff166108fc829081150290604051600060405180830381858888f19350505050158015610951573d6000803e3d6000fd5b5050565b60006012905090565b6000610968610bb0565b6109a7576040517f08c379a000000000000000000000000000000000000000000000000000000000815260040161099e9061180a565b60405180910390fd5b81600160003073ffffffffffffffffffffffffffffffffffffffff1673ffffffffffffffffffffffffffffffffffffffff168152602001908152602001600020541015610a29576040517f08c379a0000000000000000000000000000000000000000000000000000000008152600401610a20906117aa565b60405180910390fd5b81600160003073ffffffffffffffffffffffffffffffffffffffff1673ffffffffffffffffffffffffffffffffffffffff1681526020019081526020016000206000828254610a789190611abd565b9250508190555081600160003373ffffffffffffffffffffffffffffffffffffffff1673ffffffffffffffffffffffffffffffffffffffff1681526020019081526020016000206000828254610ace919061189c565b925050819055503373ffffffffffffffffffffffffffffffffffffffff163073ffffffffffffffffffffffffffffffffffffffff167fddf252ad1be2c89b69c2b068fc378daa952ba7f163c4a11628f55a4df523b3ef84604051610b32919061184a565b60405180910390a360019050919050565b6000600160008373ffffffffffffffffffffffffffffffffffffffff1673ffffffffffffffffffffffffffffffffffffffff168152602001908152602001600020549050919050565b60008054906101000a900473ffffffffffffffffffffffffffffffffffffffff1681565b60008060009054906101000a900473ffffffffffffffffffffffffffffffffffffffff1673ffffffffffffffffffffffffffffffffffffffff163373ffffffffffffffffffffffffffffffffffffffff161415610c105760019050610c15565b600090505b90565b60606040518060400160405280600381526020017f4c454f0000000000000000000000000000000000000000000000000000000000815250905090565b600081600160008573ffffffffffffffffffffffffffffffffffffffff1673ffffffffffffffffffffffffffffffffffffffff168152602001908152602001600020541015610cd9576040517f08c379a0000000000000000000000000000000000000000000000000000000008152600401610cd0906117aa565b60405180910390fd5b42600460008573ffffffffffffffffffffffffffffffffffffffff1673ffffffffffffffffffffffffffffffffffffffff168152602001908152602001600020541115610ded5781600360008573ffffffffffffffffffffffffffffffffffffffff1673ffffffffffffffffffffffffffffffffffffffff16815260200190815260200160002054600160008673ffffffffffffffffffffffffffffffffffffffff1673ffffffffffffffffffffffffffffffffffffffff16815260200190815260200160002054610dab9190611abd565b1015610dec576040517f08c379a0000000000000000000000000000000000000000000000000000000008152600401610de39061170a565b60405180910390fd5b5b6001905092915050565b60003411610e3a576040517f08c379a0000000000000000000000000000000000000000000000000000000008152600401610e31906117ea565b60405180910390fd5b6000606434610e499190611a63565b905042600460003373ffffffffffffffffffffffffffffffffffffffff1673ffffffffffffffffffffffffffffffffffffffff1681526020019081526020016000205410610ecc576040517f08c379a0000000000000000000000000000000000000000000000000000000008152600401610ec3906116ca565b60405180910390fd5b80600160003073ffffffffffffffffffffffffffffffffffffffff1673ffffffffffffffffffffffffffffffffffffffff168152602001908152602001600020541015610f4e576040517f08c379a0000000000000000000000000000000000000000000000000000000008152600401610f459061172a565b60405180910390fd5b80600160003073ffffffffffffffffffffffffffffffffffffffff1673ffffffffffffffffffffffffffffffffffffffff1681526020019081526020016000206000828254610f9d9190611abd565b9250508190555080600160003373ffffffffffffffffffffffffffffffffffffffff1673ffffffffffffffffffffffffffffffffffffffff1681526020019081526020016000206000828254610ff3919061189c565b9250508190555062093a8042611009919061189c565b600460003373ffffffffffffffffffffffffffffffffffffffff1673ffffffffffffffffffffffffffffffffffffffff1681526020019081526020016000208190555080600360003373ffffffffffffffffffffffffffffffffffffffff1673ffffffffffffffffffffffffffffffffffffffff168152602001908152602001600020819055503373ffffffffffffffffffffffffffffffffffffffff163073ffffffffffffffffffffffffffffffffffffffff167fddf252ad1be2c89b69c2b068fc378daa952ba7f163c4a11628f55a4df523b3ef836040516110ed919061184a565b60405180910390a350565b60008073ffffffffffffffffffffffffffffffffffffffff168373ffffffffffffffffffffffffffffffffffffffff161415611169576040517f08c379a0000000000000000000000000000000000000000000000000000000008152600401611160906117ca565b60405180910390fd5b6111733383610c55565b5081600160003373ffffffffffffffffffffffffffffffffffffffff1673ffffffffffffffffffffffffffffffffffffffff16815260200190815260200160002060008282546111c39190611abd565b9250508190555081600160008573ffffffffffffffffffffffffffffffffffffffff1673ffffffffffffffffffffffffffffffffffffffff1681526020019081526020016000206000828254611219919061189c565b925050819055508273ffffffffffffffffffffffffffffffffffffffff163373ffffffffffffffffffffffffffffffffffffffff167fddf252ad1be2c89b69c2b068fc378daa952ba7f163c4a11628f55a4df523b3ef8460405161127d919061184a565b60405180910390a36001905092915050565b6000600260008473ffffffffffffffffffffffffffffffffffffffff1673ffffffffffffffffffffffffffffffffffffffff16815260200190815260200160002060008373ffffffffffffffffffffffffffffffffffffffff1673ffffffffffffffffffffffffffffffffffffffff16815260200190815260200160002054905092915050565b60008135905061132581611db2565b92915050565b60008135905061133a81611dc9565b92915050565b60006020828403121561135257600080fd5b600061136084828501611316565b91505092915050565b6000806040838503121561137c57600080fd5b600061138a85828601611316565b925050602061139b85828601611316565b9150509250929050565b6000806000606084860312156113ba57600080fd5b60006113c886828701611316565b93505060206113d986828701611316565b92505060406113ea8682870161132b565b9150509250925092565b6000806040838503121561140757600080fd5b600061141585828601611316565b92505060206114268582860161132b565b9150509250929050565b60006020828403121561144257600080fd5b60006114508482850161132b565b91505092915050565b61146281611af1565b82525050565b61147181611b03565b82525050565b600061148282611880565b61148c818561188b565b935061149c818560208601611b46565b6114a581611ba8565b840191505092915050565b60006114bd601c8361188b565b91506114c882611bc6565b602082019050919050565b60006114e0601b8361188b565b91506114eb82611bef565b602082019050919050565b600061150360128361188b565b915061150e82611c18565b602082019050919050565b6000611526601a8361188b565b915061153182611c41565b602082019050919050565b6000611549601b8361188b565b915061155482611c6a565b602082019050919050565b600061156c601f8361188b565b915061157782611c93565b602082019050919050565b600061158f60108361188b565b915061159a82611cbc565b602082019050919050565b60006115b260128361188b565b91506115bd82611ce5565b602082019050919050565b60006115d5601f8361188b565b91506115e082611d0e565b602082019050919050565b60006115f860188361188b565b915061160382611d37565b602082019050919050565b600061161b601b8361188b565b915061162682611d60565b602082019050919050565b600061163e601e8361188b565b915061164982611d89565b602082019050919050565b61165d81611b2f565b82525050565b61166c81611b39565b82525050565b60006020820190506116876000830184611459565b92915050565b60006020820190506116a26000830184611468565b92915050565b600060208201905081810360008301526116c28184611477565b905092915050565b600060208201905081810360008301526116e3816114b0565b9050919050565b60006020820190508181036000830152611703816114d3565b9050919050565b60006020820190508181036000830152611723816114f6565b9050919050565b6000602082019050818103600083015261174381611519565b9050919050565b600060208201905081810360008301526117638161153c565b9050919050565b600060208201905081810360008301526117838161155f565b9050919050565b600060208201905081810360008301526117a381611582565b9050919050565b600060208201905081810360008301526117c3816115a5565b9050919050565b600060208201905081810360008301526117e3816115c8565b9050919050565b60006020820190508181036000830152611803816115eb565b9050919050565b600060208201905081810360008301526118238161160e565b9050919050565b6000602082019050818103600083015261184381611631565b9050919050565b600060208201905061185f6000830184611654565b92915050565b600060208201905061187a6000830184611663565b92915050565b600081519050919050565b600082825260208201905092915050565b60006118a782611b2f565b91506118b283611b2f565b9250827fffffffffffffffffffffffffffffffffffffffffffffffffffffffffffffffff038211156118e7576118e6611b79565b5b828201905092915050565b6000808291508390505b600185111561193c5780860481111561191857611917611b79565b5b60018516156119275780820291505b808102905061193585611bb9565b94506118fc565b94509492505050565b600061195082611b2f565b915061195b83611b39565b92506119887fffffffffffffffffffffffffffffffffffffffffffffffffffffffffffffffff8484611990565b905092915050565b6000826119a05760019050611a5c565b816119ae5760009050611a5c565b81600181146119c457600281146119ce576119fd565b6001915050611a5c565b60ff8411156119e0576119df611b79565b5b8360020a9150848211156119f7576119f6611b79565b5b50611a5c565b5060208310610133831016604e8410600b8410161715611a325782820a905083811115611a2d57611a2c611b79565b5b611a5c565b611a3f84848460016118f2565b92509050818404811115611a5657611a55611b79565b5b81810290505b9392505050565b6000611a6e82611b2f565b9150611a7983611b2f565b9250817fffffffffffffffffffffffffffffffffffffffffffffffffffffffffffffffff0483118215151615611ab257611ab1611b79565b5b828202905092915050565b6000611ac882611b2f565b9150611ad383611b2f565b925082821015611ae657611ae5611b79565b5b828203905092915050565b6000611afc82611b0f565b9050919050565b60008115159050919050565b600073ffffffffffffffffffffffffffffffffffffffff82169050919050565b6000819050919050565b600060ff82169050919050565b60005b83811015611b64578082015181840152602081019050611b49565b83811115611b73576000848401525b50505050565b7f4e487b7100000000000000000000000000000000000000000000000000000000600052601160045260246000fd5b6000601f19601f8301169050919050565b60008160011c9050919050565b7f43616e6e6f742062757920696e2061207765656b206f66207072657600000000600082015250565b7f4f6e6c79206f776e65722063616e207769746864726177204554480000000000600082015250565b7f46756e6473207374696c6c207665737465640000000000000000000000000000600082015250565b7f43616e6e6f742073656c6c206d6f7265207468616e2068617665000000000000600082015250565b7f496e73756666696369656e74207370656e64696e672066756e64730000000000600082015250565b7f43616e6e6f7420617070726f766520666f72207a65726f206164647265737300600082015250565b7f4e6f2066756e647320746f2073656e6400000000000000000000000000000000600082015250565b7f496e73756666696369656e742066756e64730000000000000000000000000000600082015250565b7f43616e6e6f74207472616e7366657220746f207a65726f206164647265737300600082015250565b7f4d696e696d756d20312077656920746f20627579204c454f0000000000000000600082015250565b7f4f6e6c79206f776e65722063616e207769746864726177204c454f0000000000600082015250565b7f43616e6e6f74207370656e642066726f6d207a65726f20616464726573730000600082015250565b611dbb81611af1565b8114611dc657600080fd5b50565b611dd281611b2f565b8114611ddd57600080fd5b5056fea264697066735822122027d127f373da43c73f5196783853e1c4a255242bb2d606e1dbea9681fb53ca3664736f6c63430008040033",
  "linkReferences": {},
  "deployedLinkReferences": {}
}