{
  "_format": "hh-sol-artifact-1",
  "contractName": "Marketplace",
  "sourceName": "contracts/Marketplace.sol",
  "abi": [
    {
      "inputs": [
        {
          "internalType": "address",
          "name": "_leoToken",
          "type": "address"
        },
        {
          "internalType": "address",
          "name": "_usdtToken",
          "type": "address"
        }
      ],
      "stateMutability": "nonpayable",
      "type": "constructor"
    },
    {
      "inputs": [
        {
          "internalType": "uint256",
          "name": "_usdtAmount",
          "type": "uint256"
        },
        {
          "internalType": "enum Marketplace.TokenName",
          "name": "_purchaseDirection",
          "type": "uint8"
        }
      ],
      "name": "exchange",
      "outputs": [],
      "stateMutability": "payable",
      "type": "function"
    }
  ],
  "bytecode": "0x60806040523480156200001157600080fd5b506040516200140d3803806200140d833981810160405281019062000037919062000243565b816000806101000a81548173ffffffffffffffffffffffffffffffffffffffff021916908373ffffffffffffffffffffffffffffffffffffffff16021790555080600160006101000a81548173ffffffffffffffffffffffffffffffffffffffff021916908373ffffffffffffffffffffffffffffffffffffffff160217905550600160009054906101000a900473ffffffffffffffffffffffffffffffffffffffff1673ffffffffffffffffffffffffffffffffffffffff1663c19dc518600160009054906101000a900473ffffffffffffffffffffffffffffffffffffffff1673ffffffffffffffffffffffffffffffffffffffff1663313ce5676040518163ffffffff1660e01b815260040160206040518083038186803b1580156200015f57600080fd5b505afa15801562000174573d6000803e3d6000fd5b505050506040513d601f19601f820116820180604052508101906200019a919062000284565b600a620001a8919062000322565b60ff16620186a0620001bb9190620002de565b6040518263ffffffff1660e01b8152600401620001d99190620002c1565b600060405180830381600087803b158015620001f457600080fd5b505af115801562000209573d6000803e3d6000fd5b5050505050506200042b565b6000815190506200022681620003f7565b92915050565b6000815190506200023d8162000411565b92915050565b600080604083850312156200025757600080fd5b6000620002678582860162000215565b92505060206200027a8582860162000215565b9150509250929050565b6000602082840312156200029757600080fd5b6000620002a7848285016200022c565b91505092915050565b620002bb81620003b4565b82525050565b6000602082019050620002d86000830184620002b0565b92915050565b6000620002eb8262000398565b9150620002f88362000398565b92508162ffffff0483118215151615620003175762000316620003c8565b5b828202905092915050565b60006200032f82620003a7565b91506200033c83620003a7565b92508160ff0483118215151615620003595762000358620003c8565b5b828202905092915050565b6000620003718262000378565b9050919050565b600073ffffffffffffffffffffffffffffffffffffffff82169050919050565b600062ffffff82169050919050565b600060ff82169050919050565b6000620003c18262000398565b9050919050565b7f4e487b7100000000000000000000000000000000000000000000000000000000600052601160045260246000fd5b620004028162000364565b81146200040e57600080fd5b50565b6200041c81620003a7565b81146200042857600080fd5b50565b610fd2806200043b6000396000f3fe60806040526004361061001e5760003560e01c806383d0baed14610023575b600080fd5b61003d60048036038101906100389190610a38565b61003f565b005b600060036064846100509190610db2565b61005a9190610c10565b905060008060009054906101000a900473ffffffffffffffffffffffffffffffffffffffff1673ffffffffffffffffffffffffffffffffffffffff1663313ce5676040518163ffffffff1660e01b815260040160206040518083038186803b1580156100c557600080fd5b505afa1580156100d9573d6000803e3d6000fd5b505050506040513d601f19601f820116820180604052508101906100fd9190610a74565b600a6101099190610c94565b600160009054906101000a900473ffffffffffffffffffffffffffffffffffffffff1673ffffffffffffffffffffffffffffffffffffffff1663313ce5676040518163ffffffff1660e01b815260040160206040518083038186803b15801561017157600080fd5b505afa158015610185573d6000803e3d6000fd5b505050506040513d601f19601f820116820180604052508101906101a99190610a74565b600a6101b59190610c94565b836101c09190610c10565b6101ca9190610db2565b905060006001811115610206577f4e487b7100000000000000000000000000000000000000000000000000000000600052602160045260246000fd5b83600181111561023f577f4e487b7100000000000000000000000000000000000000000000000000000000600052602160045260246000fd5b14156105c25783600160009054906101000a900473ffffffffffffffffffffffffffffffffffffffff1673ffffffffffffffffffffffffffffffffffffffff166370a08231336040518263ffffffff1660e01b81526004016102a19190610b24565b60206040518083038186803b1580156102b957600080fd5b505afa1580156102cd573d6000803e3d6000fd5b505050506040513d601f19601f820116820180604052508101906102f19190610a0f565b11610331576040517f08c379a000000000000000000000000000000000000000000000000000000000815260040161032890610bdf565b60405180910390fd5b8060008054906101000a900473ffffffffffffffffffffffffffffffffffffffff1673ffffffffffffffffffffffffffffffffffffffff166370a0823160008054906101000a900473ffffffffffffffffffffffffffffffffffffffff166040518263ffffffff1660e01b81526004016103ab9190610b24565b60206040518083038186803b1580156103c357600080fd5b505afa1580156103d7573d6000803e3d6000fd5b505050506040513d601f19601f820116820180604052508101906103fb9190610a0f565b1161043b576040517f08c379a000000000000000000000000000000000000000000000000000000000815260040161043290610b9f565b60405180910390fd5b600160009054906101000a900473ffffffffffffffffffffffffffffffffffffffff1673ffffffffffffffffffffffffffffffffffffffff166323b872dd3330876040518463ffffffff1660e01b815260040161049a93929190610b3f565b602060405180830381600087803b1580156104b457600080fd5b505af11580156104c8573d6000803e3d6000fd5b505050506040513d601f19601f820116820180604052508101906104ec91906109e6565b5060008054906101000a900473ffffffffffffffffffffffffffffffffffffffff1673ffffffffffffffffffffffffffffffffffffffff166323b872dd60008054906101000a900473ffffffffffffffffffffffffffffffffffffffff1633846040518463ffffffff1660e01b815260040161056a93929190610b3f565b602060405180830381600087803b15801561058457600080fd5b505af1158015610598573d6000803e3d6000fd5b505050506040513d601f19601f820116820180604052508101906105bc91906109e6565b50610977565b6001808111156105fb577f4e487b7100000000000000000000000000000000000000000000000000000000600052602160045260246000fd5b836001811115610634577f4e487b7100000000000000000000000000000000000000000000000000000000600052602160045260246000fd5b1415610975578060008054906101000a900473ffffffffffffffffffffffffffffffffffffffff1673ffffffffffffffffffffffffffffffffffffffff166370a08231336040518263ffffffff1660e01b81526004016106949190610b24565b60206040518083038186803b1580156106ac57600080fd5b505afa1580156106c0573d6000803e3d6000fd5b505050506040513d601f19601f820116820180604052508101906106e49190610a0f565b11610724576040517f08c379a000000000000000000000000000000000000000000000000000000000815260040161071b90610bdf565b60405180910390fd5b83600160009054906101000a900473ffffffffffffffffffffffffffffffffffffffff1673ffffffffffffffffffffffffffffffffffffffff166370a08231306040518263ffffffff1660e01b81526004016107809190610b24565b60206040518083038186803b15801561079857600080fd5b505afa1580156107ac573d6000803e3d6000fd5b505050506040513d601f19601f820116820180604052508101906107d09190610a0f565b11610810576040517f08c379a000000000000000000000000000000000000000000000000000000000815260040161080790610bbf565b60405180910390fd5b60008054906101000a900473ffffffffffffffffffffffffffffffffffffffff1673ffffffffffffffffffffffffffffffffffffffff166323b872dd3330846040518463ffffffff1660e01b815260040161086d93929190610b3f565b602060405180830381600087803b15801561088757600080fd5b505af115801561089b573d6000803e3d6000fd5b505050506040513d601f19601f820116820180604052508101906108bf91906109e6565b50600160009054906101000a900473ffffffffffffffffffffffffffffffffffffffff1673ffffffffffffffffffffffffffffffffffffffff1663a9059cbb33866040518363ffffffff1660e01b815260040161091d929190610b76565b602060405180830381600087803b15801561093757600080fd5b505af115801561094b573d6000803e3d6000fd5b505050506040513d601f19601f8201168201806040525081019061096f91906109e6565b50610976565b5b5b50505050565b60008151905061098c81610f47565b92915050565b6000813590506109a181610f5e565b92915050565b6000813590506109b681610f6e565b92915050565b6000815190506109cb81610f6e565b92915050565b6000815190506109e081610f85565b92915050565b6000602082840312156109f857600080fd5b6000610a068482850161097d565b91505092915050565b600060208284031215610a2157600080fd5b6000610a2f848285016109bc565b91505092915050565b60008060408385031215610a4b57600080fd5b6000610a59858286016109a7565b9250506020610a6a85828601610992565b9150509250929050565b600060208284031215610a8657600080fd5b6000610a94848285016109d1565b91505092915050565b610aa681610e0c565b82525050565b6000610ab9601883610bff565b9150610ac482610ecc565b602082019050919050565b6000610adc601983610bff565b9150610ae782610ef5565b602082019050919050565b6000610aff601283610bff565b9150610b0a82610f1e565b602082019050919050565b610b1e81610e4a565b82525050565b6000602082019050610b396000830184610a9d565b92915050565b6000606082019050610b546000830186610a9d565b610b616020830185610a9d565b610b6e6040830184610b15565b949350505050565b6000604082019050610b8b6000830185610a9d565b610b986020830184610b15565b9392505050565b60006020820190508181036000830152610bb881610aac565b9050919050565b60006020820190508181036000830152610bd881610acf565b9050919050565b60006020820190508181036000830152610bf881610af2565b9050919050565b600082825260208201905092915050565b6000610c1b82610e4a565b9150610c2683610e4a565b925082610c3657610c35610e90565b5b828204905092915050565b6000808291508390505b6001851115610c8b57808604811115610c6757610c66610e61565b5b6001851615610c765780820291505b8081029050610c8485610ebf565b9450610c4b565b94509492505050565b6000610c9f82610e4a565b9150610caa83610e54565b9250610cd77fffffffffffffffffffffffffffffffffffffffffffffffffffffffffffffffff8484610cdf565b905092915050565b600082610cef5760019050610dab565b81610cfd5760009050610dab565b8160018114610d135760028114610d1d57610d4c565b6001915050610dab565b60ff841115610d2f57610d2e610e61565b5b8360020a915084821115610d4657610d45610e61565b5b50610dab565b5060208310610133831016604e8410600b8410161715610d815782820a905083811115610d7c57610d7b610e61565b5b610dab565b610d8e8484846001610c41565b92509050818404811115610da557610da4610e61565b5b81810290505b9392505050565b6000610dbd82610e4a565b9150610dc883610e4a565b9250817fffffffffffffffffffffffffffffffffffffffffffffffffffffffffffffffff0483118215151615610e0157610e00610e61565b5b828202905092915050565b6000610e1782610e2a565b9050919050565b60008115159050919050565b600073ffffffffffffffffffffffffffffffffffffffff82169050919050565b6000819050919050565b600060ff82169050919050565b7f4e487b7100000000000000000000000000000000000000000000000000000000600052601160045260246000fd5b7f4e487b7100000000000000000000000000000000000000000000000000000000600052601260045260246000fd5b60008160011c9050919050565b7f496e73756666696369656e74206c656f20746f2073656c6c0000000000000000600082015250565b7f496e73756666696369656e74207573647420746f2073656c6c00000000000000600082015250565b7f496e73756666696369656e742066756e64730000000000000000000000000000600082015250565b610f5081610e1e565b8114610f5b57600080fd5b50565b60028110610f6b57600080fd5b50565b610f7781610e4a565b8114610f8257600080fd5b50565b610f8e81610e54565b8114610f9957600080fd5b5056fea2646970667358221220f31d84af3eb56bd82abeba900a98d0b40b8fc7ae675e627258a9bb0d0538dda764736f6c63430008040033",
  "linkReferences": {},
  "deployedLinkReferences": {}
}