{
  "_format": "hh-sol-artifact-1",
  "contractName": "Marketplace",
  "sourceName": "contracts/Marketplace.sol",
  "abi": [
    {
      "inputs": [
        {
          "internalType": "address",
          "name": "_leoToken",
          "type": "address"
        },
        {
          "internalType": "address",
          "name": "_usdtToken",
          "type": "address"
        },
        {
          "internalType": "address",
          "name": "_nft",
          "type": "address"
        }
      ],
      "stateMutability": "nonpayable",
      "type": "constructor"
    },
    {
      "inputs": [
        {
          "internalType": "uint256",
          "name": "_tokenId",
          "type": "uint256"
        },
        {
          "internalType": "address",
          "name": "_with",
          "type": "address"
        }
      ],
      "name": "buyNFT",
      "outputs": [],
      "stateMutability": "nonpayable",
      "type": "function"
    },
    {
      "inputs": [
        {
          "internalType": "address",
          "name": "_from",
          "type": "address"
        },
        {
          "internalType": "address",
          "name": "_to",
          "type": "address"
        },
        {
          "internalType": "uint256",
          "name": "_amount",
          "type": "uint256"
        }
      ],
      "name": "exchange",
      "outputs": [],
      "stateMutability": "nonpayable",
      "type": "function"
    },
    {
      "inputs": [
        {
          "internalType": "address",
          "name": "",
          "type": "address"
        },
        {
          "internalType": "address",
          "name": "",
          "type": "address"
        },
        {
          "internalType": "uint256[]",
          "name": "",
          "type": "uint256[]"
        },
        {
          "internalType": "uint256[]",
          "name": "",
          "type": "uint256[]"
        },
        {
          "internalType": "bytes",
          "name": "",
          "type": "bytes"
        }
      ],
      "name": "onERC1155BatchReceived",
      "outputs": [
        {
          "internalType": "bytes4",
          "name": "",
          "type": "bytes4"
        }
      ],
      "stateMutability": "nonpayable",
      "type": "function"
    },
    {
      "inputs": [
        {
          "internalType": "address",
          "name": "",
          "type": "address"
        },
        {
          "internalType": "address",
          "name": "",
          "type": "address"
        },
        {
          "internalType": "uint256",
          "name": "",
          "type": "uint256"
        },
        {
          "internalType": "uint256",
          "name": "",
          "type": "uint256"
        },
        {
          "internalType": "bytes",
          "name": "",
          "type": "bytes"
        }
      ],
      "name": "onERC1155Received",
      "outputs": [
        {
          "internalType": "bytes4",
          "name": "",
          "type": "bytes4"
        }
      ],
      "stateMutability": "nonpayable",
      "type": "function"
    },
    {
      "inputs": [
        {
          "internalType": "uint256",
          "name": "_tokenId",
          "type": "uint256"
        },
        {
          "internalType": "address",
          "name": "_for",
          "type": "address"
        }
      ],
      "name": "sellNFT",
      "outputs": [],
      "stateMutability": "nonpayable",
      "type": "function"
    },
    {
      "inputs": [
        {
          "internalType": "bytes4",
          "name": "interfaceId",
          "type": "bytes4"
        }
      ],
      "name": "supportsInterface",
      "outputs": [
        {
          "internalType": "bool",
          "name": "",
          "type": "bool"
        }
      ],
      "stateMutability": "view",
      "type": "function"
    }
  ],
  "bytecode": "0x60806040523480156200001157600080fd5b506040516200165638038062001656833981810160405281019062000037919062000119565b826000806101000a81548173ffffffffffffffffffffffffffffffffffffffff021916908373ffffffffffffffffffffffffffffffffffffffff16021790555081600160006101000a81548173ffffffffffffffffffffffffffffffffffffffff021916908373ffffffffffffffffffffffffffffffffffffffff16021790555080600260006101000a81548173ffffffffffffffffffffffffffffffffffffffff021916908373ffffffffffffffffffffffffffffffffffffffff160217905550505050620001bd565b6000815190506200011381620001a3565b92915050565b6000806000606084860312156200012f57600080fd5b60006200013f8682870162000102565b9350506020620001528682870162000102565b9250506040620001658682870162000102565b9150509250925092565b60006200017c8262000183565b9050919050565b600073ffffffffffffffffffffffffffffffffffffffff82169050919050565b620001ae816200016f565b8114620001ba57600080fd5b50565b61148980620001cd6000396000f3fe608060405234801561001057600080fd5b50600436106100625760003560e01c806301ffc9a7146100675780635728ad4914610097578063969e3756146100b3578063bc197c81146100cf578063d8db47a7146100ff578063f23a6e611461011b575b600080fd5b610081600480360381019061007c9190610e84565b61014b565b60405161008e9190611099565b60405180910390f35b6100b160048036038101906100ac9190610ed6565b6101c5565b005b6100cd60048036038101906100c89190610d7d565b6103db565b005b6100e960048036038101906100e49190610cbe565b610837565b6040516100f691906110b4565b60405180910390f35b61011960048036038101906101149190610ed6565b61084c565b005b61013560048036038101906101309190610dcc565b610a64565b60405161014291906110b4565b60405180910390f35b60007f4e2312e0000000000000000000000000000000000000000000000000000000007bffffffffffffffffffffffffffffffffffffffffffffffffffffffff1916827bffffffffffffffffffffffffffffffffffffffffffffffffffffffff191614806101be57506101bd82610a79565b5b9050919050565b8060008054906101000a900473ffffffffffffffffffffffffffffffffffffffff1673ffffffffffffffffffffffffffffffffffffffff168173ffffffffffffffffffffffffffffffffffffffff16148061026d5750600160009054906101000a900473ffffffffffffffffffffffffffffffffffffffff1673ffffffffffffffffffffffffffffffffffffffff168173ffffffffffffffffffffffffffffffffffffffff16145b6102ac576040517f08c379a00000000000000000000000000000000000000000000000000000000081526004016102a3906110ef565b60405180910390fd5b600260009054906101000a900473ffffffffffffffffffffffffffffffffffffffff1673ffffffffffffffffffffffffffffffffffffffff1663f242432a33308660016040518563ffffffff1660e01b815260040161030e9493929190611018565b600060405180830381600087803b15801561032857600080fd5b505af115801561033c573d6000803e3d6000fd5b505050508173ffffffffffffffffffffffffffffffffffffffff1663a9059cbb3361036685610ae3565b6040518363ffffffff1660e01b8152600401610383929190611070565b602060405180830381600087803b15801561039d57600080fd5b505af11580156103b1573d6000803e3d6000fd5b505050506040513d601f19601f820116820180604052508101906103d59190610e5b565b50505050565b8260008054906101000a900473ffffffffffffffffffffffffffffffffffffffff1673ffffffffffffffffffffffffffffffffffffffff168173ffffffffffffffffffffffffffffffffffffffff1614806104835750600160009054906101000a900473ffffffffffffffffffffffffffffffffffffffff1673ffffffffffffffffffffffffffffffffffffffff168173ffffffffffffffffffffffffffffffffffffffff16145b6104c2576040517f08c379a00000000000000000000000000000000000000000000000000000000081526004016104b9906110ef565b60405180910390fd5b8260008054906101000a900473ffffffffffffffffffffffffffffffffffffffff1673ffffffffffffffffffffffffffffffffffffffff168173ffffffffffffffffffffffffffffffffffffffff16148061056a5750600160009054906101000a900473ffffffffffffffffffffffffffffffffffffffff1673ffffffffffffffffffffffffffffffffffffffff168173ffffffffffffffffffffffffffffffffffffffff16145b6105a9576040517f08c379a00000000000000000000000000000000000000000000000000000000081526004016105a0906110ef565b60405180910390fd5b60008060009054906101000a900473ffffffffffffffffffffffffffffffffffffffff1673ffffffffffffffffffffffffffffffffffffffff168673ffffffffffffffffffffffffffffffffffffffff16141561062557655af3107a400060038561061491906111e4565b61061e91906111b3565b9050610646565b6003655af3107a40008561063991906111e4565b61064391906111b3565b90505b808573ffffffffffffffffffffffffffffffffffffffff166370a08231306040518263ffffffff1660e01b81526004016106809190610fc6565b60206040518083038186803b15801561069857600080fd5b505afa1580156106ac573d6000803e3d6000fd5b505050506040513d601f19601f820116820180604052508101906106d09190610ead565b1015610711576040517f08c379a0000000000000000000000000000000000000000000000000000000008152600401610708906110cf565b60405180910390fd5b8573ffffffffffffffffffffffffffffffffffffffff166323b872dd3330876040518463ffffffff1660e01b815260040161074e93929190610fe1565b602060405180830381600087803b15801561076857600080fd5b505af115801561077c573d6000803e3d6000fd5b505050506040513d601f19601f820116820180604052508101906107a09190610e5b565b508473ffffffffffffffffffffffffffffffffffffffff1663a9059cbb33836040518363ffffffff1660e01b81526004016107dc929190611070565b602060405180830381600087803b1580156107f657600080fd5b505af115801561080a573d6000803e3d6000fd5b505050506040513d601f19601f8201168201806040525081019061082e9190610e5b565b50505050505050565b600063bc197c8160e01b905095945050505050565b8060008054906101000a900473ffffffffffffffffffffffffffffffffffffffff1673ffffffffffffffffffffffffffffffffffffffff168173ffffffffffffffffffffffffffffffffffffffff1614806108f45750600160009054906101000a900473ffffffffffffffffffffffffffffffffffffffff1673ffffffffffffffffffffffffffffffffffffffff168173ffffffffffffffffffffffffffffffffffffffff16145b610933576040517f08c379a000000000000000000000000000000000000000000000000000000000815260040161092a906110ef565b60405180910390fd5b8173ffffffffffffffffffffffffffffffffffffffff166323b872dd333061095a86610ae3565b6040518463ffffffff1660e01b815260040161097893929190610fe1565b602060405180830381600087803b15801561099257600080fd5b505af11580156109a6573d6000803e3d6000fd5b505050506040513d601f19601f820116820180604052508101906109ca9190610e5b565b50600260009054906101000a900473ffffffffffffffffffffffffffffffffffffffff1673ffffffffffffffffffffffffffffffffffffffff1663f242432a30338660016040518563ffffffff1660e01b8152600401610a2d9493929190611018565b600060405180830381600087803b158015610a4757600080fd5b505af1158015610a5b573d6000803e3d6000fd5b50505050505050565b600063f23a6e6160e01b905095945050505050565b60007f01ffc9a7000000000000000000000000000000000000000000000000000000007bffffffffffffffffffffffffffffffffffffffffffffffffffffffff1916827bffffffffffffffffffffffffffffffffffffffffffffffffffffffff1916149050919050565b60008060009054906101000a900473ffffffffffffffffffffffffffffffffffffffff1673ffffffffffffffffffffffffffffffffffffffff168273ffffffffffffffffffffffffffffffffffffffff161415610b4b57680ad78ebc5ac62000009050610b52565b6216e36090505b919050565b6000610b6a610b6584611134565b61110f565b90508083825260208201905082856020860282011115610b8957600080fd5b60005b85811015610bb95781610b9f8882610c94565b845260208401935060208301925050600181019050610b8c565b5050509392505050565b6000610bd6610bd184611160565b61110f565b905082815260208101848484011115610bee57600080fd5b610bf98482856112c4565b509392505050565b600081359050610c10816113f7565b92915050565b600082601f830112610c2757600080fd5b8135610c37848260208601610b57565b91505092915050565b600081519050610c4f8161140e565b92915050565b600081359050610c6481611425565b92915050565b600082601f830112610c7b57600080fd5b8135610c8b848260208601610bc3565b91505092915050565b600081359050610ca38161143c565b92915050565b600081519050610cb88161143c565b92915050565b600080600080600060a08688031215610cd657600080fd5b6000610ce488828901610c01565b9550506020610cf588828901610c01565b945050604086013567ffffffffffffffff811115610d1257600080fd5b610d1e88828901610c16565b935050606086013567ffffffffffffffff811115610d3b57600080fd5b610d4788828901610c16565b925050608086013567ffffffffffffffff811115610d6457600080fd5b610d7088828901610c6a565b9150509295509295909350565b600080600060608486031215610d9257600080fd5b6000610da086828701610c01565b9350506020610db186828701610c01565b9250506040610dc286828701610c94565b9150509250925092565b600080600080600060a08688031215610de457600080fd5b6000610df288828901610c01565b9550506020610e0388828901610c01565b9450506040610e1488828901610c94565b9350506060610e2588828901610c94565b925050608086013567ffffffffffffffff811115610e4257600080fd5b610e4e88828901610c6a565b9150509295509295909350565b600060208284031215610e6d57600080fd5b6000610e7b84828501610c40565b91505092915050565b600060208284031215610e9657600080fd5b6000610ea484828501610c55565b91505092915050565b600060208284031215610ebf57600080fd5b6000610ecd84828501610ca9565b91505092915050565b60008060408385031215610ee957600080fd5b6000610ef785828601610c94565b9250506020610f0885828601610c01565b9150509250929050565b610f1b8161123e565b82525050565b610f2a81611250565b82525050565b610f398161125c565b82525050565b610f48816112b2565b82525050565b6000610f5b6013836111a2565b9150610f66826113a2565b602082019050919050565b6000610f7e600d836111a2565b9150610f89826113cb565b602082019050919050565b6000610fa1600083611191565b9150610fac826113f4565b600082019050919050565b610fc0816112a8565b82525050565b6000602082019050610fdb6000830184610f12565b92915050565b6000606082019050610ff66000830186610f12565b6110036020830185610f12565b6110106040830184610fb7565b949350505050565b600060a08201905061102d6000830187610f12565b61103a6020830186610f12565b6110476040830185610fb7565b6110546060830184610f3f565b818103608083015261106581610f94565b905095945050505050565b60006040820190506110856000830185610f12565b6110926020830184610fb7565b9392505050565b60006020820190506110ae6000830184610f21565b92915050565b60006020820190506110c96000830184610f30565b92915050565b600060208201905081810360008301526110e881610f4e565b9050919050565b6000602082019050818103600083015261110881610f71565b9050919050565b600061111961112a565b905061112582826112d3565b919050565b6000604051905090565b600067ffffffffffffffff82111561114f5761114e611362565b5b602082029050602081019050919050565b600067ffffffffffffffff82111561117b5761117a611362565b5b61118482611391565b9050602081019050919050565b600082825260208201905092915050565b600082825260208201905092915050565b60006111be826112a8565b91506111c9836112a8565b9250826111d9576111d8611333565b5b828204905092915050565b60006111ef826112a8565b91506111fa836112a8565b9250817fffffffffffffffffffffffffffffffffffffffffffffffffffffffffffffffff048311821515161561123357611232611304565b5b828202905092915050565b600061124982611288565b9050919050565b60008115159050919050565b60007fffffffff0000000000000000000000000000000000000000000000000000000082169050919050565b600073ffffffffffffffffffffffffffffffffffffffff82169050919050565b6000819050919050565b60006112bd826112a8565b9050919050565b82818337600083830152505050565b6112dc82611391565b810181811067ffffffffffffffff821117156112fb576112fa611362565b5b80604052505050565b7f4e487b7100000000000000000000000000000000000000000000000000000000600052601160045260246000fd5b7f4e487b7100000000000000000000000000000000000000000000000000000000600052601260045260246000fd5b7f4e487b7100000000000000000000000000000000000000000000000000000000600052604160045260246000fd5b6000601f19601f8301169050919050565b7f496e73756666696369656e74206d61726b657400000000000000000000000000600082015250565b7f696e76616c696420746f6b656e00000000000000000000000000000000000000600082015250565b50565b6114008161123e565b811461140b57600080fd5b50565b61141781611250565b811461142257600080fd5b50565b61142e8161125c565b811461143957600080fd5b50565b611445816112a8565b811461145057600080fd5b5056fea2646970667358221220eed31bd9224faca26dd17613d6cb36afae6515120e24d7413b92259605ecb89e64736f6c63430008040033",
  "linkReferences": {},
  "deployedLinkReferences": {}
}