{
  "_format": "hh-sol-artifact-1",
  "contractName": "Token",
  "sourceName": "contracts/Token.sol",
  "abi": [
    {
      "inputs": [],
      "stateMutability": "nonpayable",
      "type": "constructor"
    },
    {
      "anonymous": false,
      "inputs": [
        {
          "indexed": true,
          "internalType": "address",
          "name": "_owner",
          "type": "address"
        },
        {
          "indexed": true,
          "internalType": "address",
          "name": "_spender",
          "type": "address"
        },
        {
          "indexed": false,
          "internalType": "uint256",
          "name": "_value",
          "type": "uint256"
        }
      ],
      "name": "Approval",
      "type": "event"
    },
    {
      "anonymous": false,
      "inputs": [
        {
          "indexed": true,
          "internalType": "address",
          "name": "_from",
          "type": "address"
        },
        {
          "indexed": true,
          "internalType": "address",
          "name": "_to",
          "type": "address"
        },
        {
          "indexed": false,
          "internalType": "uint256",
          "name": "_value",
          "type": "uint256"
        }
      ],
      "name": "Transfer",
      "type": "event"
    },
    {
      "inputs": [
        {
          "internalType": "address",
          "name": "_owner",
          "type": "address"
        },
        {
          "internalType": "address",
          "name": "_spender",
          "type": "address"
        }
      ],
      "name": "allowance",
      "outputs": [
        {
          "internalType": "uint256",
          "name": "remaining",
          "type": "uint256"
        }
      ],
      "stateMutability": "view",
      "type": "function"
    },
    {
      "inputs": [
        {
          "internalType": "address",
          "name": "_spender",
          "type": "address"
        },
        {
          "internalType": "uint256",
          "name": "_value",
          "type": "uint256"
        }
      ],
      "name": "approve",
      "outputs": [
        {
          "internalType": "bool",
          "name": "success",
          "type": "bool"
        }
      ],
      "stateMutability": "nonpayable",
      "type": "function"
    },
    {
      "inputs": [
        {
          "internalType": "address",
          "name": "_owner",
          "type": "address"
        }
      ],
      "name": "balanceOf",
      "outputs": [
        {
          "internalType": "uint256",
          "name": "balance",
          "type": "uint256"
        }
      ],
      "stateMutability": "view",
      "type": "function"
    },
    {
      "inputs": [],
      "name": "buy",
      "outputs": [],
      "stateMutability": "payable",
      "type": "function"
    },
    {
      "inputs": [
        {
          "internalType": "address",
          "name": "_spender",
          "type": "address"
        },
        {
          "internalType": "uint256",
          "name": "_value",
          "type": "uint256"
        }
      ],
      "name": "canSpendTokens",
      "outputs": [
        {
          "internalType": "bool",
          "name": "canSpend",
          "type": "bool"
        }
      ],
      "stateMutability": "view",
      "type": "function"
    },
    {
      "inputs": [],
      "name": "decimals",
      "outputs": [
        {
          "internalType": "uint8",
          "name": "",
          "type": "uint8"
        }
      ],
      "stateMutability": "pure",
      "type": "function"
    },
    {
      "inputs": [],
      "name": "name",
      "outputs": [
        {
          "internalType": "string",
          "name": "",
          "type": "string"
        }
      ],
      "stateMutability": "pure",
      "type": "function"
    },
    {
      "inputs": [],
      "name": "owner",
      "outputs": [
        {
          "internalType": "address",
          "name": "",
          "type": "address"
        }
      ],
      "stateMutability": "view",
      "type": "function"
    },
    {
      "inputs": [],
      "name": "paymeup",
      "outputs": [],
      "stateMutability": "payable",
      "type": "function"
    },
    {
      "inputs": [],
      "name": "symbol",
      "outputs": [
        {
          "internalType": "string",
          "name": "",
          "type": "string"
        }
      ],
      "stateMutability": "pure",
      "type": "function"
    },
    {
      "inputs": [],
      "name": "totalSupply",
      "outputs": [
        {
          "internalType": "uint256",
          "name": "",
          "type": "uint256"
        }
      ],
      "stateMutability": "pure",
      "type": "function"
    },
    {
      "inputs": [
        {
          "internalType": "address",
          "name": "_to",
          "type": "address"
        },
        {
          "internalType": "uint256",
          "name": "_value",
          "type": "uint256"
        }
      ],
      "name": "transfer",
      "outputs": [
        {
          "internalType": "bool",
          "name": "success",
          "type": "bool"
        }
      ],
      "stateMutability": "nonpayable",
      "type": "function"
    },
    {
      "inputs": [
        {
          "internalType": "address",
          "name": "_from",
          "type": "address"
        },
        {
          "internalType": "address",
          "name": "_to",
          "type": "address"
        },
        {
          "internalType": "uint256",
          "name": "_value",
          "type": "uint256"
        }
      ],
      "name": "transferFrom",
      "outputs": [
        {
          "internalType": "bool",
          "name": "success",
          "type": "bool"
        }
      ],
      "stateMutability": "nonpayable",
      "type": "function"
    },
    {
      "inputs": [
        {
          "internalType": "uint256",
          "name": "_value",
          "type": "uint256"
        }
      ],
      "name": "withdrawLeo",
      "outputs": [
        {
          "internalType": "bool",
          "name": "success",
          "type": "bool"
        }
      ],
      "stateMutability": "nonpayable",
      "type": "function"
    }
  ],
  "bytecode": "0x60806040523480156200001157600080fd5b50620000226200013b60201b60201c565b600160003073ffffffffffffffffffffffffffffffffffffffff1673ffffffffffffffffffffffffffffffffffffffff16815260200190815260200160002081905550336000806101000a81548173ffffffffffffffffffffffffffffffffffffffff021916908373ffffffffffffffffffffffffffffffffffffffff160217905550620000b56200013b60201b60201c565b600260003073ffffffffffffffffffffffffffffffffffffffff1673ffffffffffffffffffffffffffffffffffffffff16815260200190815260200160002060003373ffffffffffffffffffffffffffffffffffffffff1673ffffffffffffffffffffffffffffffffffffffff16815260200190815260200160002081905550620003c5565b60006200014d6200017060201b60201c565b600a6200015b9190620001d4565b620186a06200016b919062000311565b905090565b60006012905090565b6000808291508390505b6001851115620001cb57808604811115620001a357620001a262000389565b5b6001851615620001b35780820291505b8081029050620001c385620003b8565b945062000183565b94509492505050565b6000620001e18262000372565b9150620001ee836200037c565b92506200021d7fffffffffffffffffffffffffffffffffffffffffffffffffffffffffffffffff848462000225565b905092915050565b6000826200023757600190506200030a565b816200024757600090506200030a565b81600181146200026057600281146200026b57620002a1565b60019150506200030a565b60ff84111562000280576200027f62000389565b5b8360020a9150848211156200029a576200029962000389565b5b506200030a565b5060208310610133831016604e8410600b8410161715620002db5782820a905083811115620002d557620002d462000389565b5b6200030a565b620002ea848484600162000179565b9250905081840481111562000304576200030362000389565b5b81810290505b9392505050565b60006200031e8262000372565b91506200032b8362000372565b9250817fffffffffffffffffffffffffffffffffffffffffffffffffffffffffffffffff048311821515161562000367576200036662000389565b5b828202905092915050565b6000819050919050565b600060ff82169050919050565b7f4e487b7100000000000000000000000000000000000000000000000000000000600052601160045260246000fd5b60008160011c9050919050565b611e0f80620003d56000396000f3fe6080604052600436106100dd5760003560e01c806370a082311161007f5780639af0da39116100595780639af0da39146102b7578063a6f2ae3a146102f4578063a9059cbb146102fe578063dd62ed3e1461033b576100dd565b806370a08231146102245780638da5cb5b1461026157806395d89b411461028c576100dd565b806323b872dd116100bb57806323b872dd14610175578063291b2f7b146101b2578063313ce567146101bc57806339e81957146101e7576100dd565b806306fdde03146100e2578063095ea7b31461010d57806318160ddd1461014a575b600080fd5b3480156100ee57600080fd5b506100f7610378565b60405161010491906116a1565b60405180910390f35b34801561011957600080fd5b50610134600480360381019061012f91906113ed565b6103b5565b6040516101419190611686565b60405180910390f35b34801561015657600080fd5b5061015f610516565b60405161016c9190611843565b60405180910390f35b34801561018157600080fd5b5061019c6004803603810190610197919061139e565b61053f565b6040516101a99190611686565b60405180910390f35b6101ba610846565b005b3480156101c857600080fd5b506101d1610966565b6040516101de919061185e565b60405180910390f35b3480156101f357600080fd5b5061020e60048036038101906102099190611429565b61096f565b60405161021b9190611686565b60405180910390f35b34801561023057600080fd5b5061024b60048036038101906102469190611339565b610b9c565b6040516102589190611843565b60405180910390f35b34801561026d57600080fd5b50610276610be5565b604051610283919061166b565b60405180910390f35b34801561029857600080fd5b506102a1610c09565b6040516102ae91906116a1565b60405180910390f35b3480156102c357600080fd5b506102de60048036038101906102d991906113ed565b610c46565b6040516102eb9190611686565b60405180910390f35b6102fc610de8565b005b34801561030a57600080fd5b50610325600480360381019061032091906113ed565b6110e9565b6040516103329190611686565b60405180910390f35b34801561034757600080fd5b50610362600480360381019061035d9190611362565b611288565b60405161036f9190611843565b60405180910390f35b60606040518060400160405280600d81526020017f4c656f636f646520546f6b656e00000000000000000000000000000000000000815250905090565b60008073ffffffffffffffffffffffffffffffffffffffff168373ffffffffffffffffffffffffffffffffffffffff161415610426576040517f08c379a000000000000000000000000000000000000000000000000000000000815260040161041d90611763565b60405180910390fd5b81600260003373ffffffffffffffffffffffffffffffffffffffff1673ffffffffffffffffffffffffffffffffffffffff16815260200190815260200160002060008573ffffffffffffffffffffffffffffffffffffffff1673ffffffffffffffffffffffffffffffffffffffff168152602001908152602001600020819055508273ffffffffffffffffffffffffffffffffffffffff163373ffffffffffffffffffffffffffffffffffffffff167f8c5be1e5ebec7d5bd14f71427d1e84f3dd0314c0f7b2291e5b200ac8c7c3b925846040516105049190611843565b60405180910390a36001905092915050565b6000610520610966565b600a61052c919061193e565b620186a061053a9190611a5c565b905090565b60008073ffffffffffffffffffffffffffffffffffffffff168373ffffffffffffffffffffffffffffffffffffffff1614156105b0576040517f08c379a00000000000000000000000000000000000000000000000000000000081526004016105a7906117c3565b60405180910390fd5b600073ffffffffffffffffffffffffffffffffffffffff168473ffffffffffffffffffffffffffffffffffffffff161415610620576040517f08c379a000000000000000000000000000000000000000000000000000000000815260040161061790611823565b60405180910390fd5b81600160008673ffffffffffffffffffffffffffffffffffffffff1673ffffffffffffffffffffffffffffffffffffffff16815260200190815260200160002054101580156106eb575081600260008673ffffffffffffffffffffffffffffffffffffffff1673ffffffffffffffffffffffffffffffffffffffff16815260200190815260200160002060003373ffffffffffffffffffffffffffffffffffffffff1673ffffffffffffffffffffffffffffffffffffffff1681526020019081526020016000205410155b61072a576040517f08c379a000000000000000000000000000000000000000000000000000000000815260040161072190611743565b60405180910390fd5b81600160008573ffffffffffffffffffffffffffffffffffffffff1673ffffffffffffffffffffffffffffffffffffffff16815260200190815260200160002060008282546107799190611895565b9250508190555081600160008673ffffffffffffffffffffffffffffffffffffffff1673ffffffffffffffffffffffffffffffffffffffff16815260200190815260200160002060008282546107cf9190611ab6565b925050819055508273ffffffffffffffffffffffffffffffffffffffff163373ffffffffffffffffffffffffffffffffffffffff167fddf252ad1be2c89b69c2b068fc378daa952ba7f163c4a11628f55a4df523b3ef846040516108339190611843565b60405180910390a3600190509392505050565b60008054906101000a900473ffffffffffffffffffffffffffffffffffffffff1673ffffffffffffffffffffffffffffffffffffffff163373ffffffffffffffffffffffffffffffffffffffff16146108d4576040517f08c379a00000000000000000000000000000000000000000000000000000000081526004016108cb906116e3565b60405180910390fd5b60004790506000811161091c576040517f08c379a000000000000000000000000000000000000000000000000000000000815260040161091390611783565b60405180910390fd5b3373ffffffffffffffffffffffffffffffffffffffff166108fc829081150290604051600060405180830381858888f19350505050158015610962573d6000803e3d6000fd5b5050565b60006012905090565b60008060009054906101000a900473ffffffffffffffffffffffffffffffffffffffff1673ffffffffffffffffffffffffffffffffffffffff163373ffffffffffffffffffffffffffffffffffffffff1614610a00576040517f08c379a00000000000000000000000000000000000000000000000000000000081526004016109f790611803565b60405180910390fd5b81600160003073ffffffffffffffffffffffffffffffffffffffff1673ffffffffffffffffffffffffffffffffffffffff168152602001908152602001600020541015610a82576040517f08c379a0000000000000000000000000000000000000000000000000000000008152600401610a79906117a3565b60405180910390fd5b81600160003073ffffffffffffffffffffffffffffffffffffffff1673ffffffffffffffffffffffffffffffffffffffff1681526020019081526020016000206000828254610ad19190611ab6565b9250508190555081600160003373ffffffffffffffffffffffffffffffffffffffff1673ffffffffffffffffffffffffffffffffffffffff1681526020019081526020016000206000828254610b279190611895565b925050819055503373ffffffffffffffffffffffffffffffffffffffff163073ffffffffffffffffffffffffffffffffffffffff167fddf252ad1be2c89b69c2b068fc378daa952ba7f163c4a11628f55a4df523b3ef84604051610b8b9190611843565b60405180910390a360019050919050565b6000600160008373ffffffffffffffffffffffffffffffffffffffff1673ffffffffffffffffffffffffffffffffffffffff168152602001908152602001600020549050919050565b60008054906101000a900473ffffffffffffffffffffffffffffffffffffffff1681565b60606040518060400160405280600381526020017f4c454f0000000000000000000000000000000000000000000000000000000000815250905090565b600081600160008573ffffffffffffffffffffffffffffffffffffffff1673ffffffffffffffffffffffffffffffffffffffff168152602001908152602001600020541015610cca576040517f08c379a0000000000000000000000000000000000000000000000000000000008152600401610cc1906117a3565b60405180910390fd5b42600460008573ffffffffffffffffffffffffffffffffffffffff1673ffffffffffffffffffffffffffffffffffffffff168152602001908152602001600020541115610dde5781600360008573ffffffffffffffffffffffffffffffffffffffff1673ffffffffffffffffffffffffffffffffffffffff16815260200190815260200160002054600160008673ffffffffffffffffffffffffffffffffffffffff1673ffffffffffffffffffffffffffffffffffffffff16815260200190815260200160002054610d9c9190611ab6565b1015610ddd576040517f08c379a0000000000000000000000000000000000000000000000000000000008152600401610dd490611703565b60405180910390fd5b5b6001905092915050565b60003411610e2b576040517f08c379a0000000000000000000000000000000000000000000000000000000008152600401610e22906117e3565b60405180910390fd5b6000606434610e3a9190611a5c565b905042600460003373ffffffffffffffffffffffffffffffffffffffff1673ffffffffffffffffffffffffffffffffffffffff1681526020019081526020016000205410610ebd576040517f08c379a0000000000000000000000000000000000000000000000000000000008152600401610eb4906116c3565b60405180910390fd5b80600160003073ffffffffffffffffffffffffffffffffffffffff1673ffffffffffffffffffffffffffffffffffffffff168152602001908152602001600020541015610f3f576040517f08c379a0000000000000000000000000000000000000000000000000000000008152600401610f3690611723565b60405180910390fd5b80600160003073ffffffffffffffffffffffffffffffffffffffff1673ffffffffffffffffffffffffffffffffffffffff1681526020019081526020016000206000828254610f8e9190611ab6565b9250508190555080600160003373ffffffffffffffffffffffffffffffffffffffff1673ffffffffffffffffffffffffffffffffffffffff1681526020019081526020016000206000828254610fe49190611895565b9250508190555062093a8042610ffa9190611895565b600460003373ffffffffffffffffffffffffffffffffffffffff1673ffffffffffffffffffffffffffffffffffffffff1681526020019081526020016000208190555080600360003373ffffffffffffffffffffffffffffffffffffffff1673ffffffffffffffffffffffffffffffffffffffff168152602001908152602001600020819055503373ffffffffffffffffffffffffffffffffffffffff163073ffffffffffffffffffffffffffffffffffffffff167fddf252ad1be2c89b69c2b068fc378daa952ba7f163c4a11628f55a4df523b3ef836040516110de9190611843565b60405180910390a350565b60008073ffffffffffffffffffffffffffffffffffffffff168373ffffffffffffffffffffffffffffffffffffffff16141561115a576040517f08c379a0000000000000000000000000000000000000000000000000000000008152600401611151906117c3565b60405180910390fd5b6111643383610c46565b61116d57600080fd5b81600160003373ffffffffffffffffffffffffffffffffffffffff1673ffffffffffffffffffffffffffffffffffffffff16815260200190815260200160002060008282546111bc9190611ab6565b9250508190555081600160008573ffffffffffffffffffffffffffffffffffffffff1673ffffffffffffffffffffffffffffffffffffffff16815260200190815260200160002060008282546112129190611895565b925050819055508273ffffffffffffffffffffffffffffffffffffffff163373ffffffffffffffffffffffffffffffffffffffff167fddf252ad1be2c89b69c2b068fc378daa952ba7f163c4a11628f55a4df523b3ef846040516112769190611843565b60405180910390a36001905092915050565b6000600260008473ffffffffffffffffffffffffffffffffffffffff1673ffffffffffffffffffffffffffffffffffffffff16815260200190815260200160002060008373ffffffffffffffffffffffffffffffffffffffff1673ffffffffffffffffffffffffffffffffffffffff16815260200190815260200160002054905092915050565b60008135905061131e81611dab565b92915050565b60008135905061133381611dc2565b92915050565b60006020828403121561134b57600080fd5b60006113598482850161130f565b91505092915050565b6000806040838503121561137557600080fd5b60006113838582860161130f565b92505060206113948582860161130f565b9150509250929050565b6000806000606084860312156113b357600080fd5b60006113c18682870161130f565b93505060206113d28682870161130f565b92505060406113e386828701611324565b9150509250925092565b6000806040838503121561140057600080fd5b600061140e8582860161130f565b925050602061141f85828601611324565b9150509250929050565b60006020828403121561143b57600080fd5b600061144984828501611324565b91505092915050565b61145b81611aea565b82525050565b61146a81611afc565b82525050565b600061147b82611879565b6114858185611884565b9350611495818560208601611b3f565b61149e81611ba1565b840191505092915050565b60006114b6601c83611884565b91506114c182611bbf565b602082019050919050565b60006114d9601b83611884565b91506114e482611be8565b602082019050919050565b60006114fc601283611884565b915061150782611c11565b602082019050919050565b600061151f601a83611884565b915061152a82611c3a565b602082019050919050565b6000611542601b83611884565b915061154d82611c63565b602082019050919050565b6000611565601f83611884565b915061157082611c8c565b602082019050919050565b6000611588601083611884565b915061159382611cb5565b602082019050919050565b60006115ab601283611884565b91506115b682611cde565b602082019050919050565b60006115ce601f83611884565b91506115d982611d07565b602082019050919050565b60006115f1601883611884565b91506115fc82611d30565b602082019050919050565b6000611614601b83611884565b915061161f82611d59565b602082019050919050565b6000611637601e83611884565b915061164282611d82565b602082019050919050565b61165681611b28565b82525050565b61166581611b32565b82525050565b60006020820190506116806000830184611452565b92915050565b600060208201905061169b6000830184611461565b92915050565b600060208201905081810360008301526116bb8184611470565b905092915050565b600060208201905081810360008301526116dc816114a9565b9050919050565b600060208201905081810360008301526116fc816114cc565b9050919050565b6000602082019050818103600083015261171c816114ef565b9050919050565b6000602082019050818103600083015261173c81611512565b9050919050565b6000602082019050818103600083015261175c81611535565b9050919050565b6000602082019050818103600083015261177c81611558565b9050919050565b6000602082019050818103600083015261179c8161157b565b9050919050565b600060208201905081810360008301526117bc8161159e565b9050919050565b600060208201905081810360008301526117dc816115c1565b9050919050565b600060208201905081810360008301526117fc816115e4565b9050919050565b6000602082019050818103600083015261181c81611607565b9050919050565b6000602082019050818103600083015261183c8161162a565b9050919050565b6000602082019050611858600083018461164d565b92915050565b6000602082019050611873600083018461165c565b92915050565b600081519050919050565b600082825260208201905092915050565b60006118a082611b28565b91506118ab83611b28565b9250827fffffffffffffffffffffffffffffffffffffffffffffffffffffffffffffffff038211156118e0576118df611b72565b5b828201905092915050565b6000808291508390505b60018511156119355780860481111561191157611910611b72565b5b60018516156119205780820291505b808102905061192e85611bb2565b94506118f5565b94509492505050565b600061194982611b28565b915061195483611b32565b92506119817fffffffffffffffffffffffffffffffffffffffffffffffffffffffffffffffff8484611989565b905092915050565b6000826119995760019050611a55565b816119a75760009050611a55565b81600181146119bd57600281146119c7576119f6565b6001915050611a55565b60ff8411156119d9576119d8611b72565b5b8360020a9150848211156119f0576119ef611b72565b5b50611a55565b5060208310610133831016604e8410600b8410161715611a2b5782820a905083811115611a2657611a25611b72565b5b611a55565b611a3884848460016118eb565b92509050818404811115611a4f57611a4e611b72565b5b81810290505b9392505050565b6000611a6782611b28565b9150611a7283611b28565b9250817fffffffffffffffffffffffffffffffffffffffffffffffffffffffffffffffff0483118215151615611aab57611aaa611b72565b5b828202905092915050565b6000611ac182611b28565b9150611acc83611b28565b925082821015611adf57611ade611b72565b5b828203905092915050565b6000611af582611b08565b9050919050565b60008115159050919050565b600073ffffffffffffffffffffffffffffffffffffffff82169050919050565b6000819050919050565b600060ff82169050919050565b60005b83811015611b5d578082015181840152602081019050611b42565b83811115611b6c576000848401525b50505050565b7f4e487b7100000000000000000000000000000000000000000000000000000000600052601160045260246000fd5b6000601f19601f8301169050919050565b60008160011c9050919050565b7f43616e6e6f742062757920696e2061207765656b206f66207072657600000000600082015250565b7f4f6e6c79206f776e65722063616e207769746864726177204554480000000000600082015250565b7f46756e6473207374696c6c207665737465640000000000000000000000000000600082015250565b7f43616e6e6f742073656c6c206d6f7265207468616e2068617665000000000000600082015250565b7f496e73756666696369656e74207370656e64696e672066756e64730000000000600082015250565b7f43616e6e6f7420617070726f766520666f72207a65726f206164647265737300600082015250565b7f4e6f2066756e647320746f2073656e6400000000000000000000000000000000600082015250565b7f496e73756666696369656e742066756e64730000000000000000000000000000600082015250565b7f43616e6e6f74207472616e7366657220746f207a65726f206164647265737300600082015250565b7f4d696e696d756d20312077656920746f20627579204c454f0000000000000000600082015250565b7f4f6e6c79206f776e65722063616e207769746864726177204c454f0000000000600082015250565b7f43616e6e6f74207370656e642066726f6d207a65726f20616464726573730000600082015250565b611db481611aea565b8114611dbf57600080fd5b50565b611dcb81611b28565b8114611dd657600080fd5b5056fea26469706673582212203951cd5059b65170e9fa9adef90a35e57931262de84650d33bc66cf8c8a6723b64736f6c63430008040033",
  "linkReferences": {},
  "deployedLinkReferences": {}
}