{
  "_format": "hh-sol-artifact-1",
  "contractName": "Token",
  "sourceName": "contracts/Token.sol",
  "abi": [
    {
      "inputs": [],
      "stateMutability": "nonpayable",
      "type": "constructor"
    },
    {
      "anonymous": false,
      "inputs": [
        {
          "indexed": true,
          "internalType": "address",
          "name": "_owner",
          "type": "address"
        },
        {
          "indexed": true,
          "internalType": "address",
          "name": "_spender",
          "type": "address"
        },
        {
          "indexed": false,
          "internalType": "uint256",
          "name": "_value",
          "type": "uint256"
        }
      ],
      "name": "Approval",
      "type": "event"
    },
    {
      "anonymous": false,
      "inputs": [
        {
          "indexed": true,
          "internalType": "address",
          "name": "_from",
          "type": "address"
        },
        {
          "indexed": true,
          "internalType": "address",
          "name": "_to",
          "type": "address"
        },
        {
          "indexed": false,
          "internalType": "uint256",
          "name": "_value",
          "type": "uint256"
        }
      ],
      "name": "Transfer",
      "type": "event"
    },
    {
      "inputs": [
        {
          "internalType": "address",
          "name": "_owner",
          "type": "address"
        },
        {
          "internalType": "address",
          "name": "_spender",
          "type": "address"
        }
      ],
      "name": "allowance",
      "outputs": [
        {
          "internalType": "uint256",
          "name": "remaining",
          "type": "uint256"
        }
      ],
      "stateMutability": "view",
      "type": "function"
    },
    {
      "inputs": [
        {
          "internalType": "address",
          "name": "_spender",
          "type": "address"
        },
        {
          "internalType": "uint256",
          "name": "_value",
          "type": "uint256"
        }
      ],
      "name": "approve",
      "outputs": [
        {
          "internalType": "bool",
          "name": "success",
          "type": "bool"
        }
      ],
      "stateMutability": "nonpayable",
      "type": "function"
    },
    {
      "inputs": [
        {
          "internalType": "address",
          "name": "_owner",
          "type": "address"
        }
      ],
      "name": "balanceOf",
      "outputs": [
        {
          "internalType": "uint256",
          "name": "balance",
          "type": "uint256"
        }
      ],
      "stateMutability": "view",
      "type": "function"
    },
    {
      "inputs": [],
      "name": "buy",
      "outputs": [],
      "stateMutability": "payable",
      "type": "function"
    },
    {
      "inputs": [
        {
          "internalType": "address",
          "name": "_spender",
          "type": "address"
        },
        {
          "internalType": "uint256",
          "name": "_value",
          "type": "uint256"
        }
      ],
      "name": "canSpendTokens",
      "outputs": [
        {
          "internalType": "bool",
          "name": "canSpend",
          "type": "bool"
        }
      ],
      "stateMutability": "view",
      "type": "function"
    },
    {
      "inputs": [],
      "name": "decimals",
      "outputs": [
        {
          "internalType": "uint8",
          "name": "",
          "type": "uint8"
        }
      ],
      "stateMutability": "pure",
      "type": "function"
    },
    {
      "inputs": [],
      "name": "isOwner",
      "outputs": [
        {
          "internalType": "bool",
          "name": "isOwnerTrue",
          "type": "bool"
        }
      ],
      "stateMutability": "view",
      "type": "function"
    },
    {
      "inputs": [],
      "name": "name",
      "outputs": [
        {
          "internalType": "string",
          "name": "",
          "type": "string"
        }
      ],
      "stateMutability": "pure",
      "type": "function"
    },
    {
      "inputs": [],
      "name": "owner",
      "outputs": [
        {
          "internalType": "address",
          "name": "",
          "type": "address"
        }
      ],
      "stateMutability": "view",
      "type": "function"
    },
    {
      "inputs": [],
      "name": "paymeup",
      "outputs": [],
      "stateMutability": "payable",
      "type": "function"
    },
    {
      "inputs": [],
      "name": "symbol",
      "outputs": [
        {
          "internalType": "string",
          "name": "",
          "type": "string"
        }
      ],
      "stateMutability": "pure",
      "type": "function"
    },
    {
      "inputs": [],
      "name": "totalSupply",
      "outputs": [
        {
          "internalType": "uint256",
          "name": "",
          "type": "uint256"
        }
      ],
      "stateMutability": "pure",
      "type": "function"
    },
    {
      "inputs": [
        {
          "internalType": "address",
          "name": "_to",
          "type": "address"
        },
        {
          "internalType": "uint256",
          "name": "_value",
          "type": "uint256"
        }
      ],
      "name": "transfer",
      "outputs": [
        {
          "internalType": "bool",
          "name": "success",
          "type": "bool"
        }
      ],
      "stateMutability": "nonpayable",
      "type": "function"
    },
    {
      "inputs": [
        {
          "internalType": "address",
          "name": "_from",
          "type": "address"
        },
        {
          "internalType": "address",
          "name": "_to",
          "type": "address"
        },
        {
          "internalType": "uint256",
          "name": "_value",
          "type": "uint256"
        }
      ],
      "name": "transferFrom",
      "outputs": [
        {
          "internalType": "bool",
          "name": "success",
          "type": "bool"
        }
      ],
      "stateMutability": "nonpayable",
      "type": "function"
    },
    {
      "inputs": [
        {
          "internalType": "uint256",
          "name": "_value",
          "type": "uint256"
        }
      ],
      "name": "withdrawLeo",
      "outputs": [
        {
          "internalType": "bool",
          "name": "success",
          "type": "bool"
        }
      ],
      "stateMutability": "nonpayable",
      "type": "function"
    }
  ],
  "bytecode": "0x60806040523480156200001157600080fd5b50620000226200013b60201b60201c565b600160003073ffffffffffffffffffffffffffffffffffffffff1673ffffffffffffffffffffffffffffffffffffffff16815260200190815260200160002081905550336000806101000a81548173ffffffffffffffffffffffffffffffffffffffff021916908373ffffffffffffffffffffffffffffffffffffffff160217905550620000b56200013b60201b60201c565b600260003073ffffffffffffffffffffffffffffffffffffffff1673ffffffffffffffffffffffffffffffffffffffff16815260200190815260200160002060003373ffffffffffffffffffffffffffffffffffffffff1673ffffffffffffffffffffffffffffffffffffffff16815260200190815260200160002081905550620003c5565b60006200014d6200017060201b60201c565b600a6200015b9190620001d4565b620186a06200016b919062000311565b905090565b60006012905090565b6000808291508390505b6001851115620001cb57808604811115620001a357620001a262000389565b5b6001851615620001b35780820291505b8081029050620001c385620003b8565b945062000183565b94509492505050565b6000620001e18262000372565b9150620001ee836200037c565b92506200021d7fffffffffffffffffffffffffffffffffffffffffffffffffffffffffffffffff848462000225565b905092915050565b6000826200023757600190506200030a565b816200024757600090506200030a565b81600181146200026057600281146200026b57620002a1565b60019150506200030a565b60ff84111562000280576200027f62000389565b5b8360020a9150848211156200029a576200029962000389565b5b506200030a565b5060208310610133831016604e8410600b8410161715620002db5782820a905083811115620002d557620002d462000389565b5b6200030a565b620002ea848484600162000179565b9250905081840481111562000304576200030362000389565b5b81810290505b9392505050565b60006200031e8262000372565b91506200032b8362000372565b9250817fffffffffffffffffffffffffffffffffffffffffffffffffffffffffffffffff048311821515161562000367576200036662000389565b5b828202905092915050565b6000819050919050565b600060ff82169050919050565b7f4e487b7100000000000000000000000000000000000000000000000000000000600052601160045260246000fd5b60008160011c9050919050565b611e6680620003d56000396000f3fe6080604052600436106100e85760003560e01c806370a082311161008a5780639af0da39116100595780639af0da39146102ed578063a6f2ae3a1461032a578063a9059cbb14610334578063dd62ed3e14610371576100e8565b806370a082311461022f5780638da5cb5b1461026c5780638f32d59b1461029757806395d89b41146102c2576100e8565b806323b872dd116100c657806323b872dd14610180578063291b2f7b146101bd578063313ce567146101c757806339e81957146101f2576100e8565b806306fdde03146100ed578063095ea7b31461011857806318160ddd14610155575b600080fd5b3480156100f957600080fd5b506101026103ae565b60405161010f91906116f8565b60405180910390f35b34801561012457600080fd5b5061013f600480360381019061013a9190611444565b6103eb565b60405161014c91906116dd565b60405180910390f35b34801561016157600080fd5b5061016a61054c565b604051610177919061189a565b60405180910390f35b34801561018c57600080fd5b506101a760048036038101906101a291906113f5565b610575565b6040516101b491906116dd565b60405180910390f35b6101c561087c565b005b3480156101d357600080fd5b506101dc610955565b6040516101e991906118b5565b60405180910390f35b3480156101fe57600080fd5b5061021960048036038101906102149190611480565b61095e565b60405161022691906116dd565b60405180910390f35b34801561023b57600080fd5b5061025660048036038101906102519190611390565b610b8b565b604051610263919061189a565b60405180910390f35b34801561027857600080fd5b50610281610bd4565b60405161028e91906116c2565b60405180910390f35b3480156102a357600080fd5b506102ac610bf8565b6040516102b991906116dd565b60405180910390f35b3480156102ce57600080fd5b506102d7610c60565b6040516102e491906116f8565b60405180910390f35b3480156102f957600080fd5b50610314600480360381019061030f9190611444565b610c9d565b60405161032191906116dd565b60405180910390f35b610332610e3f565b005b34801561034057600080fd5b5061035b60048036038101906103569190611444565b611140565b60405161036891906116dd565b60405180910390f35b34801561037d57600080fd5b50610398600480360381019061039391906113b9565b6112df565b6040516103a5919061189a565b60405180910390f35b60606040518060400160405280600d81526020017f4c656f636f646520546f6b656e00000000000000000000000000000000000000815250905090565b60008073ffffffffffffffffffffffffffffffffffffffff168373ffffffffffffffffffffffffffffffffffffffff16141561045c576040517f08c379a0000000000000000000000000000000000000000000000000000000008152600401610453906117ba565b60405180910390fd5b81600260003373ffffffffffffffffffffffffffffffffffffffff1673ffffffffffffffffffffffffffffffffffffffff16815260200190815260200160002060008573ffffffffffffffffffffffffffffffffffffffff1673ffffffffffffffffffffffffffffffffffffffff168152602001908152602001600020819055508273ffffffffffffffffffffffffffffffffffffffff163373ffffffffffffffffffffffffffffffffffffffff167f8c5be1e5ebec7d5bd14f71427d1e84f3dd0314c0f7b2291e5b200ac8c7c3b9258460405161053a919061189a565b60405180910390a36001905092915050565b6000610556610955565b600a6105629190611995565b620186a06105709190611ab3565b905090565b60008073ffffffffffffffffffffffffffffffffffffffff168373ffffffffffffffffffffffffffffffffffffffff1614156105e6576040517f08c379a00000000000000000000000000000000000000000000000000000000081526004016105dd9061181a565b60405180910390fd5b600073ffffffffffffffffffffffffffffffffffffffff168473ffffffffffffffffffffffffffffffffffffffff161415610656576040517f08c379a000000000000000000000000000000000000000000000000000000000815260040161064d9061187a565b60405180910390fd5b81600160008673ffffffffffffffffffffffffffffffffffffffff1673ffffffffffffffffffffffffffffffffffffffff1681526020019081526020016000205410158015610721575081600260008673ffffffffffffffffffffffffffffffffffffffff1673ffffffffffffffffffffffffffffffffffffffff16815260200190815260200160002060003373ffffffffffffffffffffffffffffffffffffffff1673ffffffffffffffffffffffffffffffffffffffff1681526020019081526020016000205410155b610760576040517f08c379a00000000000000000000000000000000000000000000000000000000081526004016107579061179a565b60405180910390fd5b81600160008573ffffffffffffffffffffffffffffffffffffffff1673ffffffffffffffffffffffffffffffffffffffff16815260200190815260200160002060008282546107af91906118ec565b9250508190555081600160008673ffffffffffffffffffffffffffffffffffffffff1673ffffffffffffffffffffffffffffffffffffffff16815260200190815260200160002060008282546108059190611b0d565b925050819055508273ffffffffffffffffffffffffffffffffffffffff163373ffffffffffffffffffffffffffffffffffffffff167fddf252ad1be2c89b69c2b068fc378daa952ba7f163c4a11628f55a4df523b3ef84604051610869919061189a565b60405180910390a3600190509392505050565b610884610bf8565b6108c3576040517f08c379a00000000000000000000000000000000000000000000000000000000081526004016108ba9061173a565b60405180910390fd5b60004790506000811161090b576040517f08c379a0000000000000000000000000000000000000000000000000000000008152600401610902906117da565b60405180910390fd5b3373ffffffffffffffffffffffffffffffffffffffff166108fc829081150290604051600060405180830381858888f19350505050158015610951573d6000803e3d6000fd5b5050565b60006012905090565b60008060009054906101000a900473ffffffffffffffffffffffffffffffffffffffff1673ffffffffffffffffffffffffffffffffffffffff163373ffffffffffffffffffffffffffffffffffffffff16146109ef576040517f08c379a00000000000000000000000000000000000000000000000000000000081526004016109e69061185a565b60405180910390fd5b81600160003073ffffffffffffffffffffffffffffffffffffffff1673ffffffffffffffffffffffffffffffffffffffff168152602001908152602001600020541015610a71576040517f08c379a0000000000000000000000000000000000000000000000000000000008152600401610a68906117fa565b60405180910390fd5b81600160003073ffffffffffffffffffffffffffffffffffffffff1673ffffffffffffffffffffffffffffffffffffffff1681526020019081526020016000206000828254610ac09190611b0d565b9250508190555081600160003373ffffffffffffffffffffffffffffffffffffffff1673ffffffffffffffffffffffffffffffffffffffff1681526020019081526020016000206000828254610b1691906118ec565b925050819055503373ffffffffffffffffffffffffffffffffffffffff163073ffffffffffffffffffffffffffffffffffffffff167fddf252ad1be2c89b69c2b068fc378daa952ba7f163c4a11628f55a4df523b3ef84604051610b7a919061189a565b60405180910390a360019050919050565b6000600160008373ffffffffffffffffffffffffffffffffffffffff1673ffffffffffffffffffffffffffffffffffffffff168152602001908152602001600020549050919050565b60008054906101000a900473ffffffffffffffffffffffffffffffffffffffff1681565b60008060009054906101000a900473ffffffffffffffffffffffffffffffffffffffff1673ffffffffffffffffffffffffffffffffffffffff163373ffffffffffffffffffffffffffffffffffffffff161415610c585760019050610c5d565b600090505b90565b60606040518060400160405280600381526020017f4c454f0000000000000000000000000000000000000000000000000000000000815250905090565b600081600160008573ffffffffffffffffffffffffffffffffffffffff1673ffffffffffffffffffffffffffffffffffffffff168152602001908152602001600020541015610d21576040517f08c379a0000000000000000000000000000000000000000000000000000000008152600401610d18906117fa565b60405180910390fd5b42600460008573ffffffffffffffffffffffffffffffffffffffff1673ffffffffffffffffffffffffffffffffffffffff168152602001908152602001600020541115610e355781600360008573ffffffffffffffffffffffffffffffffffffffff1673ffffffffffffffffffffffffffffffffffffffff16815260200190815260200160002054600160008673ffffffffffffffffffffffffffffffffffffffff1673ffffffffffffffffffffffffffffffffffffffff16815260200190815260200160002054610df39190611b0d565b1015610e34576040517f08c379a0000000000000000000000000000000000000000000000000000000008152600401610e2b9061175a565b60405180910390fd5b5b6001905092915050565b60003411610e82576040517f08c379a0000000000000000000000000000000000000000000000000000000008152600401610e799061183a565b60405180910390fd5b6000606434610e919190611ab3565b905042600460003373ffffffffffffffffffffffffffffffffffffffff1673ffffffffffffffffffffffffffffffffffffffff1681526020019081526020016000205410610f14576040517f08c379a0000000000000000000000000000000000000000000000000000000008152600401610f0b9061171a565b60405180910390fd5b80600160003073ffffffffffffffffffffffffffffffffffffffff1673ffffffffffffffffffffffffffffffffffffffff168152602001908152602001600020541015610f96576040517f08c379a0000000000000000000000000000000000000000000000000000000008152600401610f8d9061177a565b60405180910390fd5b80600160003073ffffffffffffffffffffffffffffffffffffffff1673ffffffffffffffffffffffffffffffffffffffff1681526020019081526020016000206000828254610fe59190611b0d565b9250508190555080600160003373ffffffffffffffffffffffffffffffffffffffff1673ffffffffffffffffffffffffffffffffffffffff168152602001908152602001600020600082825461103b91906118ec565b9250508190555062093a804261105191906118ec565b600460003373ffffffffffffffffffffffffffffffffffffffff1673ffffffffffffffffffffffffffffffffffffffff1681526020019081526020016000208190555080600360003373ffffffffffffffffffffffffffffffffffffffff1673ffffffffffffffffffffffffffffffffffffffff168152602001908152602001600020819055503373ffffffffffffffffffffffffffffffffffffffff163073ffffffffffffffffffffffffffffffffffffffff167fddf252ad1be2c89b69c2b068fc378daa952ba7f163c4a11628f55a4df523b3ef83604051611135919061189a565b60405180910390a350565b60008073ffffffffffffffffffffffffffffffffffffffff168373ffffffffffffffffffffffffffffffffffffffff1614156111b1576040517f08c379a00000000000000000000000000000000000000000000000000000000081526004016111a89061181a565b60405180910390fd5b6111bb3383610c9d565b6111c457600080fd5b81600160003373ffffffffffffffffffffffffffffffffffffffff1673ffffffffffffffffffffffffffffffffffffffff16815260200190815260200160002060008282546112139190611b0d565b9250508190555081600160008573ffffffffffffffffffffffffffffffffffffffff1673ffffffffffffffffffffffffffffffffffffffff168152602001908152602001600020600082825461126991906118ec565b925050819055508273ffffffffffffffffffffffffffffffffffffffff163373ffffffffffffffffffffffffffffffffffffffff167fddf252ad1be2c89b69c2b068fc378daa952ba7f163c4a11628f55a4df523b3ef846040516112cd919061189a565b60405180910390a36001905092915050565b6000600260008473ffffffffffffffffffffffffffffffffffffffff1673ffffffffffffffffffffffffffffffffffffffff16815260200190815260200160002060008373ffffffffffffffffffffffffffffffffffffffff1673ffffffffffffffffffffffffffffffffffffffff16815260200190815260200160002054905092915050565b60008135905061137581611e02565b92915050565b60008135905061138a81611e19565b92915050565b6000602082840312156113a257600080fd5b60006113b084828501611366565b91505092915050565b600080604083850312156113cc57600080fd5b60006113da85828601611366565b92505060206113eb85828601611366565b9150509250929050565b60008060006060848603121561140a57600080fd5b600061141886828701611366565b935050602061142986828701611366565b925050604061143a8682870161137b565b9150509250925092565b6000806040838503121561145757600080fd5b600061146585828601611366565b92505060206114768582860161137b565b9150509250929050565b60006020828403121561149257600080fd5b60006114a08482850161137b565b91505092915050565b6114b281611b41565b82525050565b6114c181611b53565b82525050565b60006114d2826118d0565b6114dc81856118db565b93506114ec818560208601611b96565b6114f581611bf8565b840191505092915050565b600061150d601c836118db565b915061151882611c16565b602082019050919050565b6000611530601b836118db565b915061153b82611c3f565b602082019050919050565b60006115536012836118db565b915061155e82611c68565b602082019050919050565b6000611576601a836118db565b915061158182611c91565b602082019050919050565b6000611599601b836118db565b91506115a482611cba565b602082019050919050565b60006115bc601f836118db565b91506115c782611ce3565b602082019050919050565b60006115df6010836118db565b91506115ea82611d0c565b602082019050919050565b60006116026012836118db565b915061160d82611d35565b602082019050919050565b6000611625601f836118db565b915061163082611d5e565b602082019050919050565b60006116486018836118db565b915061165382611d87565b602082019050919050565b600061166b601b836118db565b915061167682611db0565b602082019050919050565b600061168e601e836118db565b915061169982611dd9565b602082019050919050565b6116ad81611b7f565b82525050565b6116bc81611b89565b82525050565b60006020820190506116d760008301846114a9565b92915050565b60006020820190506116f260008301846114b8565b92915050565b6000602082019050818103600083015261171281846114c7565b905092915050565b6000602082019050818103600083015261173381611500565b9050919050565b6000602082019050818103600083015261175381611523565b9050919050565b6000602082019050818103600083015261177381611546565b9050919050565b6000602082019050818103600083015261179381611569565b9050919050565b600060208201905081810360008301526117b38161158c565b9050919050565b600060208201905081810360008301526117d3816115af565b9050919050565b600060208201905081810360008301526117f3816115d2565b9050919050565b60006020820190508181036000830152611813816115f5565b9050919050565b6000602082019050818103600083015261183381611618565b9050919050565b600060208201905081810360008301526118538161163b565b9050919050565b600060208201905081810360008301526118738161165e565b9050919050565b6000602082019050818103600083015261189381611681565b9050919050565b60006020820190506118af60008301846116a4565b92915050565b60006020820190506118ca60008301846116b3565b92915050565b600081519050919050565b600082825260208201905092915050565b60006118f782611b7f565b915061190283611b7f565b9250827fffffffffffffffffffffffffffffffffffffffffffffffffffffffffffffffff0382111561193757611936611bc9565b5b828201905092915050565b6000808291508390505b600185111561198c5780860481111561196857611967611bc9565b5b60018516156119775780820291505b808102905061198585611c09565b945061194c565b94509492505050565b60006119a082611b7f565b91506119ab83611b89565b92506119d87fffffffffffffffffffffffffffffffffffffffffffffffffffffffffffffffff84846119e0565b905092915050565b6000826119f05760019050611aac565b816119fe5760009050611aac565b8160018114611a145760028114611a1e57611a4d565b6001915050611aac565b60ff841115611a3057611a2f611bc9565b5b8360020a915084821115611a4757611a46611bc9565b5b50611aac565b5060208310610133831016604e8410600b8410161715611a825782820a905083811115611a7d57611a7c611bc9565b5b611aac565b611a8f8484846001611942565b92509050818404811115611aa657611aa5611bc9565b5b81810290505b9392505050565b6000611abe82611b7f565b9150611ac983611b7f565b9250817fffffffffffffffffffffffffffffffffffffffffffffffffffffffffffffffff0483118215151615611b0257611b01611bc9565b5b828202905092915050565b6000611b1882611b7f565b9150611b2383611b7f565b925082821015611b3657611b35611bc9565b5b828203905092915050565b6000611b4c82611b5f565b9050919050565b60008115159050919050565b600073ffffffffffffffffffffffffffffffffffffffff82169050919050565b6000819050919050565b600060ff82169050919050565b60005b83811015611bb4578082015181840152602081019050611b99565b83811115611bc3576000848401525b50505050565b7f4e487b7100000000000000000000000000000000000000000000000000000000600052601160045260246000fd5b6000601f19601f8301169050919050565b60008160011c9050919050565b7f43616e6e6f742062757920696e2061207765656b206f66207072657600000000600082015250565b7f4f6e6c79206f776e65722063616e207769746864726177204554480000000000600082015250565b7f46756e6473207374696c6c207665737465640000000000000000000000000000600082015250565b7f43616e6e6f742073656c6c206d6f7265207468616e2068617665000000000000600082015250565b7f496e73756666696369656e74207370656e64696e672066756e64730000000000600082015250565b7f43616e6e6f7420617070726f766520666f72207a65726f206164647265737300600082015250565b7f4e6f2066756e647320746f2073656e6400000000000000000000000000000000600082015250565b7f496e73756666696369656e742066756e64730000000000000000000000000000600082015250565b7f43616e6e6f74207472616e7366657220746f207a65726f206164647265737300600082015250565b7f4d696e696d756d20312077656920746f20627579204c454f0000000000000000600082015250565b7f4f6e6c79206f776e65722063616e207769746864726177204c454f0000000000600082015250565b7f43616e6e6f74207370656e642066726f6d207a65726f20616464726573730000600082015250565b611e0b81611b41565b8114611e1657600080fd5b50565b611e2281611b7f565b8114611e2d57600080fd5b5056fea2646970667358221220e50bad529034a1fae378b9e42c79b58efa5fad142162cedf7d0ac33c418e9f0864736f6c63430008040033",
  "linkReferences": {},
  "deployedLinkReferences": {}
}