{
  "_format": "hh-sol-artifact-1",
  "contractName": "FakeUSDT",
  "sourceName": "contracts/FakeUSDT.sol",
  "abi": [
    {
      "inputs": [],
      "stateMutability": "nonpayable",
      "type": "constructor"
    },
    {
      "anonymous": false,
      "inputs": [
        {
          "indexed": true,
          "internalType": "address",
          "name": "owner",
          "type": "address"
        },
        {
          "indexed": true,
          "internalType": "address",
          "name": "spender",
          "type": "address"
        },
        {
          "indexed": false,
          "internalType": "uint256",
          "name": "value",
          "type": "uint256"
        }
      ],
      "name": "Approval",
      "type": "event"
    },
    {
      "anonymous": false,
      "inputs": [
        {
          "indexed": true,
          "internalType": "address",
          "name": "from",
          "type": "address"
        },
        {
          "indexed": true,
          "internalType": "address",
          "name": "to",
          "type": "address"
        },
        {
          "indexed": false,
          "internalType": "uint256",
          "name": "value",
          "type": "uint256"
        }
      ],
      "name": "Transfer",
      "type": "event"
    },
    {
      "inputs": [
        {
          "internalType": "address",
          "name": "owner",
          "type": "address"
        },
        {
          "internalType": "address",
          "name": "spender",
          "type": "address"
        }
      ],
      "name": "allowance",
      "outputs": [
        {
          "internalType": "uint256",
          "name": "",
          "type": "uint256"
        }
      ],
      "stateMutability": "view",
      "type": "function"
    },
    {
      "inputs": [
        {
          "internalType": "address",
          "name": "spender",
          "type": "address"
        },
        {
          "internalType": "uint256",
          "name": "amount",
          "type": "uint256"
        }
      ],
      "name": "approve",
      "outputs": [
        {
          "internalType": "bool",
          "name": "",
          "type": "bool"
        }
      ],
      "stateMutability": "nonpayable",
      "type": "function"
    },
    {
      "inputs": [
        {
          "internalType": "address",
          "name": "account",
          "type": "address"
        }
      ],
      "name": "balanceOf",
      "outputs": [
        {
          "internalType": "uint256",
          "name": "",
          "type": "uint256"
        }
      ],
      "stateMutability": "view",
      "type": "function"
    },
    {
      "inputs": [],
      "name": "decimals",
      "outputs": [
        {
          "internalType": "uint8",
          "name": "",
          "type": "uint8"
        }
      ],
      "stateMutability": "pure",
      "type": "function"
    },
    {
      "inputs": [
        {
          "internalType": "address",
          "name": "spender",
          "type": "address"
        },
        {
          "internalType": "uint256",
          "name": "subtractedValue",
          "type": "uint256"
        }
      ],
      "name": "decreaseAllowance",
      "outputs": [
        {
          "internalType": "bool",
          "name": "",
          "type": "bool"
        }
      ],
      "stateMutability": "nonpayable",
      "type": "function"
    },
    {
      "inputs": [
        {
          "internalType": "address",
          "name": "_beneficient",
          "type": "address"
        },
        {
          "internalType": "uint256",
          "name": "_value",
          "type": "uint256"
        }
      ],
      "name": "giveTokens",
      "outputs": [],
      "stateMutability": "nonpayable",
      "type": "function"
    },
    {
      "inputs": [
        {
          "internalType": "address",
          "name": "spender",
          "type": "address"
        },
        {
          "internalType": "uint256",
          "name": "addedValue",
          "type": "uint256"
        }
      ],
      "name": "increaseAllowance",
      "outputs": [
        {
          "internalType": "bool",
          "name": "",
          "type": "bool"
        }
      ],
      "stateMutability": "nonpayable",
      "type": "function"
    },
    {
      "inputs": [],
      "name": "name",
      "outputs": [
        {
          "internalType": "string",
          "name": "",
          "type": "string"
        }
      ],
      "stateMutability": "view",
      "type": "function"
    },
    {
      "inputs": [],
      "name": "symbol",
      "outputs": [
        {
          "internalType": "string",
          "name": "",
          "type": "string"
        }
      ],
      "stateMutability": "view",
      "type": "function"
    },
    {
      "inputs": [],
      "name": "totalSupply",
      "outputs": [
        {
          "internalType": "uint256",
          "name": "",
          "type": "uint256"
        }
      ],
      "stateMutability": "view",
      "type": "function"
    },
    {
      "inputs": [
        {
          "internalType": "address",
          "name": "to",
          "type": "address"
        },
        {
          "internalType": "uint256",
          "name": "amount",
          "type": "uint256"
        }
      ],
      "name": "transfer",
      "outputs": [
        {
          "internalType": "bool",
          "name": "",
          "type": "bool"
        }
      ],
      "stateMutability": "nonpayable",
      "type": "function"
    },
    {
      "inputs": [
        {
          "internalType": "address",
          "name": "from",
          "type": "address"
        },
        {
          "internalType": "address",
          "name": "to",
          "type": "address"
        },
        {
          "internalType": "uint256",
          "name": "amount",
          "type": "uint256"
        }
      ],
      "name": "transferFrom",
      "outputs": [
        {
          "internalType": "bool",
          "name": "",
          "type": "bool"
        }
      ],
      "stateMutability": "nonpayable",
      "type": "function"
    }
  ],
  "bytecode": "0x60806040523480156200001157600080fd5b506040518060400160405280600981526020017f46616b65205553445400000000000000000000000000000000000000000000008152506040518060400160405280600481526020017f5553445400000000000000000000000000000000000000000000000000000000815250816003908051906020019062000096929190620000b8565b508060049080519060200190620000af929190620000b8565b505050620001cd565b828054620000c69062000168565b90600052602060002090601f016020900481019282620000ea576000855562000136565b82601f106200010557805160ff191683800117855562000136565b8280016001018555821562000136579182015b828111156200013557825182559160200191906001019062000118565b5b50905062000145919062000149565b5090565b5b80821115620001645760008160009055506001016200014a565b5090565b600060028204905060018216806200018157607f821691505b602082108114156200019857620001976200019e565b5b50919050565b7f4e487b7100000000000000000000000000000000000000000000000000000000600052602260045260246000fd5b61173080620001dd6000396000f3fe608060405234801561001057600080fd5b50600436106100b45760003560e01c806368dc95281161007157806368dc9528146101a357806370a08231146101bf57806395d89b41146101ef578063a457c2d71461020d578063a9059cbb1461023d578063dd62ed3e1461026d576100b4565b806306fdde03146100b9578063095ea7b3146100d757806318160ddd1461010757806323b872dd14610125578063313ce567146101555780633950935114610173575b600080fd5b6100c161029d565b6040516100ce9190610fd5565b60405180910390f35b6100f160048036038101906100ec9190610e00565b61032f565b6040516100fe9190610fba565b60405180910390f35b61010f610352565b60405161011c91906110f7565b60405180910390f35b61013f600480360381019061013a9190610db1565b61035c565b60405161014c9190610fba565b60405180910390f35b61015d61038b565b60405161016a9190611112565b60405180910390f35b61018d60048036038101906101889190610e00565b610394565b60405161019a9190610fba565b60405180910390f35b6101bd60048036038101906101b89190610e00565b61043e565b005b6101d960048036038101906101d49190610d4c565b61046a565b6040516101e691906110f7565b60405180910390f35b6101f76104b2565b6040516102049190610fd5565b60405180910390f35b61022760048036038101906102229190610e00565b610544565b6040516102349190610fba565b60405180910390f35b61025760048036038101906102529190610e00565b61062e565b6040516102649190610fba565b60405180910390f35b61028760048036038101906102829190610d75565b610651565b60405161029491906110f7565b60405180910390f35b6060600380546102ac906113f2565b80601f01602080910402602001604051908101604052809291908181526020018280546102d8906113f2565b80156103255780601f106102fa57610100808354040283529160200191610325565b820191906000526020600020905b81548152906001019060200180831161030857829003601f168201915b5050505050905090565b60008061033a6106d8565b90506103478185856106e0565b600191505092915050565b6000600254905090565b6000806103676106d8565b90506103748582856108ab565b61037f858585610937565b60019150509392505050565b60006006905090565b60008061039f6106d8565b9050610433818585600160008673ffffffffffffffffffffffffffffffffffffffff1673ffffffffffffffffffffffffffffffffffffffff16815260200190815260200160002060008973ffffffffffffffffffffffffffffffffffffffff1673ffffffffffffffffffffffffffffffffffffffff1681526020019081526020016000205461042e9190611149565b6106e0565b600191505092915050565b6104668261044a61038b565b600a61045691906111f2565b836104619190611310565b610bb8565b5050565b60008060008373ffffffffffffffffffffffffffffffffffffffff1673ffffffffffffffffffffffffffffffffffffffff168152602001908152602001600020549050919050565b6060600480546104c1906113f2565b80601f01602080910402602001604051908101604052809291908181526020018280546104ed906113f2565b801561053a5780601f1061050f5761010080835404028352916020019161053a565b820191906000526020600020905b81548152906001019060200180831161051d57829003601f168201915b5050505050905090565b60008061054f6106d8565b90506000600160008373ffffffffffffffffffffffffffffffffffffffff1673ffffffffffffffffffffffffffffffffffffffff16815260200190815260200160002060008673ffffffffffffffffffffffffffffffffffffffff1673ffffffffffffffffffffffffffffffffffffffff16815260200190815260200160002054905083811015610615576040517f08c379a000000000000000000000000000000000000000000000000000000000815260040161060c906110b7565b60405180910390fd5b61062282868684036106e0565b60019250505092915050565b6000806106396106d8565b9050610646818585610937565b600191505092915050565b6000600160008473ffffffffffffffffffffffffffffffffffffffff1673ffffffffffffffffffffffffffffffffffffffff16815260200190815260200160002060008373ffffffffffffffffffffffffffffffffffffffff1673ffffffffffffffffffffffffffffffffffffffff16815260200190815260200160002054905092915050565b600033905090565b600073ffffffffffffffffffffffffffffffffffffffff168373ffffffffffffffffffffffffffffffffffffffff161415610750576040517f08c379a000000000000000000000000000000000000000000000000000000000815260040161074790611097565b60405180910390fd5b600073ffffffffffffffffffffffffffffffffffffffff168273ffffffffffffffffffffffffffffffffffffffff1614156107c0576040517f08c379a00000000000000000000000000000000000000000000000000000000081526004016107b790611017565b60405180910390fd5b80600160008573ffffffffffffffffffffffffffffffffffffffff1673ffffffffffffffffffffffffffffffffffffffff16815260200190815260200160002060008473ffffffffffffffffffffffffffffffffffffffff1673ffffffffffffffffffffffffffffffffffffffff168152602001908152602001600020819055508173ffffffffffffffffffffffffffffffffffffffff168373ffffffffffffffffffffffffffffffffffffffff167f8c5be1e5ebec7d5bd14f71427d1e84f3dd0314c0f7b2291e5b200ac8c7c3b9258360405161089e91906110f7565b60405180910390a3505050565b60006108b78484610651565b90507fffffffffffffffffffffffffffffffffffffffffffffffffffffffffffffffff81146109315781811015610923576040517f08c379a000000000000000000000000000000000000000000000000000000000815260040161091a90611037565b60405180910390fd5b61093084848484036106e0565b5b50505050565b600073ffffffffffffffffffffffffffffffffffffffff168373ffffffffffffffffffffffffffffffffffffffff1614156109a7576040517f08c379a000000000000000000000000000000000000000000000000000000000815260040161099e90611077565b60405180910390fd5b600073ffffffffffffffffffffffffffffffffffffffff168273ffffffffffffffffffffffffffffffffffffffff161415610a17576040517f08c379a0000000000000000000000000000000000000000000000000000000008152600401610a0e90610ff7565b60405180910390fd5b610a22838383610d18565b60008060008573ffffffffffffffffffffffffffffffffffffffff1673ffffffffffffffffffffffffffffffffffffffff16815260200190815260200160002054905081811015610aa8576040517f08c379a0000000000000000000000000000000000000000000000000000000008152600401610a9f90611057565b60405180910390fd5b8181036000808673ffffffffffffffffffffffffffffffffffffffff1673ffffffffffffffffffffffffffffffffffffffff16815260200190815260200160002081905550816000808573ffffffffffffffffffffffffffffffffffffffff1673ffffffffffffffffffffffffffffffffffffffff1681526020019081526020016000206000828254610b3b9190611149565b925050819055508273ffffffffffffffffffffffffffffffffffffffff168473ffffffffffffffffffffffffffffffffffffffff167fddf252ad1be2c89b69c2b068fc378daa952ba7f163c4a11628f55a4df523b3ef84604051610b9f91906110f7565b60405180910390a3610bb2848484610d1d565b50505050565b600073ffffffffffffffffffffffffffffffffffffffff168273ffffffffffffffffffffffffffffffffffffffff161415610c28576040517f08c379a0000000000000000000000000000000000000000000000000000000008152600401610c1f906110d7565b60405180910390fd5b610c3460008383610d18565b8060026000828254610c469190611149565b92505081905550806000808473ffffffffffffffffffffffffffffffffffffffff1673ffffffffffffffffffffffffffffffffffffffff1681526020019081526020016000206000828254610c9b9190611149565b925050819055508173ffffffffffffffffffffffffffffffffffffffff16600073ffffffffffffffffffffffffffffffffffffffff167fddf252ad1be2c89b69c2b068fc378daa952ba7f163c4a11628f55a4df523b3ef83604051610d0091906110f7565b60405180910390a3610d1460008383610d1d565b5050565b505050565b505050565b600081359050610d31816116cc565b92915050565b600081359050610d46816116e3565b92915050565b600060208284031215610d5e57600080fd5b6000610d6c84828501610d22565b91505092915050565b60008060408385031215610d8857600080fd5b6000610d9685828601610d22565b9250506020610da785828601610d22565b9150509250929050565b600080600060608486031215610dc657600080fd5b6000610dd486828701610d22565b9350506020610de586828701610d22565b9250506040610df686828701610d37565b9150509250925092565b60008060408385031215610e1357600080fd5b6000610e2185828601610d22565b9250506020610e3285828601610d37565b9150509250929050565b610e458161137c565b82525050565b6000610e568261112d565b610e608185611138565b9350610e708185602086016113bf565b610e7981611482565b840191505092915050565b6000610e91602383611138565b9150610e9c826114a0565b604082019050919050565b6000610eb4602283611138565b9150610ebf826114ef565b604082019050919050565b6000610ed7601d83611138565b9150610ee28261153e565b602082019050919050565b6000610efa602683611138565b9150610f0582611567565b604082019050919050565b6000610f1d602583611138565b9150610f28826115b6565b604082019050919050565b6000610f40602483611138565b9150610f4b82611605565b604082019050919050565b6000610f63602583611138565b9150610f6e82611654565b604082019050919050565b6000610f86601f83611138565b9150610f91826116a3565b602082019050919050565b610fa5816113a8565b82525050565b610fb4816113b2565b82525050565b6000602082019050610fcf6000830184610e3c565b92915050565b60006020820190508181036000830152610fef8184610e4b565b905092915050565b6000602082019050818103600083015261101081610e84565b9050919050565b6000602082019050818103600083015261103081610ea7565b9050919050565b6000602082019050818103600083015261105081610eca565b9050919050565b6000602082019050818103600083015261107081610eed565b9050919050565b6000602082019050818103600083015261109081610f10565b9050919050565b600060208201905081810360008301526110b081610f33565b9050919050565b600060208201905081810360008301526110d081610f56565b9050919050565b600060208201905081810360008301526110f081610f79565b9050919050565b600060208201905061110c6000830184610f9c565b92915050565b60006020820190506111276000830184610fab565b92915050565b600081519050919050565b600082825260208201905092915050565b6000611154826113a8565b915061115f836113a8565b9250827fffffffffffffffffffffffffffffffffffffffffffffffffffffffffffffffff0382111561119457611193611424565b5b828201905092915050565b6000808291508390505b60018511156111e9578086048111156111c5576111c4611424565b5b60018516156111d45780820291505b80810290506111e285611493565b94506111a9565b94509492505050565b60006111fd826113a8565b9150611208836113b2565b92506112357fffffffffffffffffffffffffffffffffffffffffffffffffffffffffffffffff848461123d565b905092915050565b60008261124d5760019050611309565b8161125b5760009050611309565b8160018114611271576002811461127b576112aa565b6001915050611309565b60ff84111561128d5761128c611424565b5b8360020a9150848211156112a4576112a3611424565b5b50611309565b5060208310610133831016604e8410600b84101617156112df5782820a9050838111156112da576112d9611424565b5b611309565b6112ec848484600161119f565b9250905081840481111561130357611302611424565b5b81810290505b9392505050565b600061131b826113a8565b9150611326836113a8565b9250817fffffffffffffffffffffffffffffffffffffffffffffffffffffffffffffffff048311821515161561135f5761135e611424565b5b828202905092915050565b600061137582611388565b9050919050565b60008115159050919050565b600073ffffffffffffffffffffffffffffffffffffffff82169050919050565b6000819050919050565b600060ff82169050919050565b60005b838110156113dd5780820151818401526020810190506113c2565b838111156113ec576000848401525b50505050565b6000600282049050600182168061140a57607f821691505b6020821081141561141e5761141d611453565b5b50919050565b7f4e487b7100000000000000000000000000000000000000000000000000000000600052601160045260246000fd5b7f4e487b7100000000000000000000000000000000000000000000000000000000600052602260045260246000fd5b6000601f19601f8301169050919050565b60008160011c9050919050565b7f45524332303a207472616e7366657220746f20746865207a65726f206164647260008201527f6573730000000000000000000000000000000000000000000000000000000000602082015250565b7f45524332303a20617070726f766520746f20746865207a65726f20616464726560008201527f7373000000000000000000000000000000000000000000000000000000000000602082015250565b7f45524332303a20696e73756666696369656e7420616c6c6f77616e6365000000600082015250565b7f45524332303a207472616e7366657220616d6f756e742065786365656473206260008201527f616c616e63650000000000000000000000000000000000000000000000000000602082015250565b7f45524332303a207472616e736665722066726f6d20746865207a65726f20616460008201527f6472657373000000000000000000000000000000000000000000000000000000602082015250565b7f45524332303a20617070726f76652066726f6d20746865207a65726f2061646460008201527f7265737300000000000000000000000000000000000000000000000000000000602082015250565b7f45524332303a2064656372656173656420616c6c6f77616e63652062656c6f7760008201527f207a65726f000000000000000000000000000000000000000000000000000000602082015250565b7f45524332303a206d696e7420746f20746865207a65726f206164647265737300600082015250565b6116d58161136a565b81146116e057600080fd5b50565b6116ec816113a8565b81146116f757600080fd5b5056fea2646970667358221220f8ca09288389dd8234cad2241c25455e4264b6957605bcfb072b5501472ac57464736f6c63430008040033",
  "linkReferences": {},
  "deployedLinkReferences": {}
}